S019000050726163746963654C61625465737433412E73726563BD
S11300000C9434000C9451000C9451000C94510045
S11300100C9451000C9451000C9451000C94510018
S11300200C9451000C9451000C9451000C94510008
S11300300C9451000C9451000C9446010C94510002
S11300400C9451000C9451000C9451000C945100E8
S11300500C9451000C9451000C9451000C945100D8
S11300600C9451000C94510011241FBECFEFD8E022
S1130070DEBFCDBF11E0A0E0B1E0ECE4F4E002C0EB
S113008005900D92A035B107D9F721E0A0E5B1E0C4
S113009001C01D92AB3BB207E1F70E94DB010C9457
S11300A024020C94000087B18F6087B987B1806304
S11300B087B9089598B182958F70907F892B88B9FC
S11300C04498459A8FE99FE00197F1F700C000003A
S11300D045988FE99FE00197F1F700C0000008956B
S11300E098B1282F22952F70907F922B98B944981D
S11300F0459AEFE9FFE03197F1F700C00000459819
S1130100EFE3FFE13197F1F700C0000098B18F7081
S1130110907F892B88B94498459A8FE99FE001978D
S1130120F1F700C000004598EFE3FFE13197F1F7E4
S113013000C00000089598B1282F22952F70907F59
S1130140922B98B9449A459AEFE9FFE03197F1F779
S113015000C000004598EFE9FFE03197F1F700C0D7
S1130160000098B18F70907F892B88B9449A459A82
S11301708FE99FE00197F1F700C000004598EFE395
S1130180FFE13197F1F700C0000008950E94530089
S113019080E30E945A008FE090E40197F1F700C0D9
S11301A0000080E30E945A008FE891E00197F1F784
S11301B000C0000080E30E945A0080E20E945A00BE
S11301C088E20E94700088E00E94700081E00E9432
S11301D0700086E00E9470008FE00E9470009FEF24
S11301E02BED85E0915020408040E1F700C00000F5
S11301F00895613009F4805C80680E94700008955D
S11302008CE00E94700008952091530130915401B4
S1130210F901E95AFE4F4091510150915201E40F06
S1130220F51F80832F5F3F4F309354012093530178
S113023080915501909156010196909356018093B7
S11302405501089580915101909152019C012F5FB5
S11302503F4F3093520120935101FC01E95AFE4F64
S11302608081209153013091540121503109309300
S1130270540120935301209155013091560121508E
S11302803109309356012093550108951F920F921E
S11302900FB60F9211248F939F9380910001909138
S11302A00101181619064CF4809100019091010186
S11302B0019790930101809300019F918F910F907A
S11302C00FBE0F901F90189589EF87BDEEE6F0E002
S11302D080818260808384B5826084BD83E085BD33
S11302E00895259A0E94C6000E9400010E9464019C
S11302F00895EF92FF920F931F93CF93DF938C0196
S11303007C01C0E0D0E006C0F70181917F010E942A
S11303109B002196F80101900020E9F73197E01B3A
S1130320F10BCE17DF0780F3DF91CF911F910F916F
S1130330FF90EF900895809102018330E1F028F45A
S1130340813049F0823079F00895853021F1D8F078
S1130350863049F1089583E091E00E94790182E0BA
S11303608093020108958EE091E00E94790183E078
S113037080930201089588E191E00E94790184E06C
S113038080930201089586E291E00E94790185E05C
S113039080930201089583E391E00E94790186E04D
S11303A080930201089582E491E00E94790181E042
S11303B08093020108950E947101789480E284B9C7
S11303C0C8EED3E008E813E18091000190910101A7
S11303D018161906CCF38091500191E0980F909370
S11303E050010E940401809150018A3019F5109344
S11303F001010093000161E080E00E94F900809116
S1130400550190915601892B59F00E942201805D7B
S11304100E949B008091550190915601892BA9F768
S1130420809100019091010118161906CCF31092E5
S11304305001CACF81E00E9470000E949B01D093BA
S10F04400101C0930001C0CFF894FFCF6D
S113044CE803014920616D20496E74656C004920F4
S113045C616D2049424D2E004920616D204E766914
S113046C6469612E20004920616D20476F6F676CB1
S113047C652E004920616D204D6963726F736F6640
S113048C74004920616D2061206E6F626F64790085
S9030000FC
