:100000000C9434000C9451000C9451000C94510049
:100010000C9451000C9451000C9451000C9451001C
:100020000C9451000C9451000C9451000C94380124
:100030000C9451000C9451000C940F010C9451003D
:100040000C9451000C9451000C9451000C945100EC
:100050000C9451000C9451000C9451000C945100DC
:100060000C9451000C94510011241FBECFEFD8E026
:10007000DEBFCDBF11E0A0E0B1E0EAEFF3E002C0E7
:1000800005900D92A233B107D9F721E0A2E3B1E0C8
:1000900001C01D92A433B207E1F70E94E3010C9462
:1000A000FB010C94000087B18F6087B987B1806332
:1000B00087B9089598B182958F70907F892B88B900
:1000C0004498459A8FE99FE00197F1F700C000003E
:1000D00045988FE99FE00197F1F700C0000008956F
:1000E00098B1282F22952F70907F922B98B9449821
:1000F000459AEFE9FFE03197F1F700C0000045981D
:10010000EFE3FFE13197F1F700C0000098B18F7085
:10011000907F892B88B94498459A8FE99FE0019791
:10012000F1F700C000004598EFE3FFE13197F1F7E8
:1001300000C00000089598B1282F22952F70907F5D
:10014000922B98B9449A459AEFE9FFE03197F1F77D
:1001500000C000004598EFE9FFE03197F1F700C0DB
:10016000000098B18F70907F892B88B9449A459A86
:100170008FE99FE00197F1F700C000004598EFE399
:10018000FFE13197F1F700C0000008950E9453008D
:1001900080E30E945A008FE090E40197F1F700C0DD
:1001A000000080E30E945A008FE891E00197F1F788
:1001B00000C0000080E30E945A0080E20E945A00C2
:1001C00088E20E94700088E00E94700081E00E9436
:1001D000700086E00E9470008FE00E9470009FEF28
:1001E0002BED85E0915020408040E1F700C00000F9
:1001F000089581E00E94700008958CE00E947000D4
:10020000089582E090E09093330180933201259A23
:100210000E94C6000E94FD000E94F90008951F92EE
:100220000F920FB60F9211248F939F93809102012A
:1002300090910301181619064CF4809102019091D7
:100240000301019790930301809302019F918F9185
:100250000F900FBE0F901F90189584B5826084BDDB
:1002600089EF87BD82E080936E0083E085BD0895AD
:100270001F920F920FB60F9211248F939F9380912C
:10028000000190910101181619064CF480910001AB
:1002900090910101019790930101809300019F913A
:1002A0008F910F900FBE0F901F901895029719F025
:1002B0002EE330E002C02AEF30E095B180E28927DA
:1002C00085B930930301209302010895EF92FF92C4
:1002D0000F931F93CF93DF938C010E94F900780155
:1002E000C0E0D0E006C0F70181917F010E949B0031
:1002F0002196F80101900020E9F73197E01BF10BFE
:10030000CE17DF0780F3DF91CF911F910F91FF9000
:10031000EF9008958091320190913301029759F442
:1003200088E090E0909333018093320186E091E081
:100330000E946601089582E090E0909333018093DB
:10034000320185E191E00E946601089580910401E7
:10035000823029F0833091F08130A1F525C01A99BF
:1003600007C082E08093050183E080930401089533
:1003700082E0809305018093040108951A990DC0CD
:1003800080910501823049F483E08093050181E08A
:10039000809304010E948A01089583E080930501FF
:1003A00082E08093040108951A9906C081E0809349
:1003B000050180930401089581E08093050183E0A5
:1003C0008093040108950E9401010E942D017894F8
:1003D00085E291E00E9466010E94A60180910201DF
:1003E00090910301892BC1F78091320190913301E3
:0A03F0000E945601F1CFF894FFCFF0
:1003FA007D00FA0002025A68656E672D6669656CAF
:10040A0064204F4E005A68656E672D6669656C6494
:10041A00204F4646004A61792055706164687961C7
:02042A00790057
:00000001FF
