S01300004C616232615F70617274312E7372656328
S11300000C9434000C943E000C943E000C943E007E
S11300100C943E000C943E000C943E000C943E0064
S11300200C943E000C943E000C943E000C943E0054
S11300300C943E000C943E000C943E000C943E0044
S11300400C943E000C943E000C943E000C943E0034
S11300500C943E000C943E000C943E000C943E0024
S11300600C943E000C943E0011241FBECFEFD8E048
S1130070DEBFCDBF0E9440000C9477000C940000BA
S1130080259A8FEF8AB91F9919C02D9A8BB92FEF32
S113009036E093E0215030409040E1F700C000008A
S11300A095B115B89BB11BB82FEF36E093E0215002
S11300B030409040E1F700C00000E5CF2D9A8BB9A5
S11300C02FEF34E39CE0215030409040E1F700C032
S11300D0000095B115B89BB11BB82FEF34E39CE039
S11300E0215030409040E1F700C00000CCCFF8949C
S10500F0FFCF3C
S9030000FC
