S01800004C61625F61737369676E6D656E7434442E73726563ED
S11300000C9434000C9451000C941F020C94510075
S11300100C9451000C9451000C9451000C94510018
S11300200C9451000C9451000C9451000C94410117
S11300300C9451000C9451000C944A020C945100FD
S11300400C9451000C9451000C9451000C945100E8
S11300500C9451000C9451000C9451000C945100D8
S11300600C9451000C94510011241FBECFEFD8E022
S1130070DEBFCDBF11E0A0E0B1E0E6ECFBE002C0E2
S113008005900D92A032B107D9F721E0A0E2B1E0CA
S113009001C01D92A136B207E1F70E94E8020C9458
S11300A0E1050C94000087B18F6087B987B1806344
S11300B087B9089598B182958F70907F892B88B9FC
S11300C04498459A8FE99FE00197F1F700C000003A
S11300D045988FE99FE00197F1F700C0000008956B
S11300E098B1282F22952F70907F922B98B944981D
S11300F0459AEFE9FFE03197F1F700C00000459819
S1130100EFE3FFE13197F1F700C0000098B18F7081
S1130110907F892B88B94498459A8FE99FE001978D
S1130120F1F700C000004598EFE3FFE13197F1F7E4
S113013000C00000089598B1282F22952F70907F59
S1130140922B98B9449A459AEFE9FFE03197F1F779
S113015000C000004598EFE9FFE03197F1F700C0D7
S1130160000098B18F70907F892B88B9449A459A82
S11301708FE99FE00197F1F700C000004598EFE395
S1130180FFE13197F1F700C0000008950E94530089
S113019080E30E945A008FE090E40197F1F700C0D9
S11301A0000080E30E945A008FE891E00197F1F784
S11301B000C0000080E30E945A0080E20E945A00BE
S11301C088E20E94700088E00E94700081E00E9432
S11301D0700086E00E9470008FE00E9470009FEF24
S11301E02BED85E0915020408040E1F700C00000F5
S11301F0089581E00E94700008950F931F93CF9398
S1130200DF93009781F0662371F0EC016150062FB3
S113021010E00F5F1F4F080F191F89910E949B0068
S1130220C017D107D1F7DF91CF911F910F91089596
S1130230613009F4805C80680E9470000895EF9238
S1130240FF920F931F93CF93DF938C017C01C0E047
S1130250D0E006C0F70181917F010E949B002196A6
S1130260F80101900020E9F73197E01BF10BCE175C
S1130270DF0780F3DF91CF911F910F91FF90EF90F3
S113028008951F920F920FB60F9211248F939F938C
S11302908091020190910301181619064CF4809183
S11302A0020190910301019790930301809302014D
S11302B09F918F910F900FBE0F901F90189583E020
S11302C085BD81E0809381000895109245011092CC
S11302D04401109243011092420110924101109284
S11302E0400110923F0110923E0110923D01109284
S11302F03C0110923B0110923A0110923901109284
S11303003801109237011092360110923501109283
S11303103401109233011092320110922D01109287
S11303202C0110922F0110922E0110922B01109289
S11303302A0110922901109228011092270110928B
S1130340260110922501109224011092230110928B
S113035022011092210110922001089580914A01F6
S1130360813089F028F08230B1F0833059F108955A
S11303700E94F90081E090E090934C0180934B013E
S113038080934A01089510924C0110924B0182E02F
S113039080934A0108950E94650110924C011092C5
S11303A04B0110924601109247011092480110929D
S11303B049010E94F90085E091E00E941F0110921A
S11303C04A0108950E94F90010924A01089580910B
S11303D0300190913101892B39F080910001909185
S11303E0010118161906CCF380910401823051F0F2
S11303F08330A9F08130C1F44B9916C082E0809318
S1130400040112C04B9907C083E0809304010E9449
S1130410AE01E99A09C081E08093040105C04B9BB9
S113042003C082E08093040181E090E09093010195
S113043080930001109231011092300108951F92AF
S11304400F920FB60F9211242F933F934F935F9304
S11304506F937F938F939F93AF93BF93EF93FF9388
S1130460E9980E94E70181E090E090933101809344
S11304703001FF91EF91BF91AF919F918F917F9147
S11304806F915F914F913F912F910F900FBE0F90FD
S11304901F9018951F920F920FB60F9211242F934D
S11304A03F934F935F936F937F938F939F93AF93F8
S11304B0BF93EF93FF938091460190914701A091E0
S11304C04801B09149010196A11DB11D80934601D7
S11304D090934701A0934801B09349018091000192
S11304E090910101181619064CF480910001909125
S11304F00101019790930101809300010E94E7019B
S1130500FF91EF91BF91AF919F918F917F916F91E7
S11305105F914F913F912F910F900FBE0F901F90BD
S113052018950E94C600E9E6F0E080818860808327
S1130530E99A89EF87BDEEE6F0E0808182608083EE
S113054084B5826084BD89EF90E0909389008093A4
S11305508800EFE6F0E0808182608083E1E8F0E0EB
S11305608081886080830E945F010895CF93DF9328
S113057061E080E00E94180180914601909147015A
S1130580A0914801B0914901BF93AF939F938F937A
S11305908CE091E09F938F93CDE4D1E0DF93CF93F0
S11305A00E94090309900020E9F72197BE016D54C8
S11305B071408DE491E00E94FD008DB79EB70896CE
S11305C00FB6F8949EBF0FBE8DBFDF91CF910895F3
S11305D00E949102789461E080E00E94180183E116
S11305E091E00E941F01C1E0D0E08091020190914E
S11305F0030118161906CCF380914B0190914C011C
S1130600892B99F30E94B602D0930301C09302018F
S1130610ECCFAEE0B0E0EFE0F3E00C94B8050D8968
S11306201E8986E08C831A8309838FEF9FE79E835C
S11306308D83AE01475E5F4F6F89788DCE01019641
S11306400E942C032F813885F801E20FF31F1082DA
S11306502E96E4E00C94D405ACE0B0E0E2E3F3E0E1
S11306600C94AA057C016B018A01FC011782168295
S1130670838181FFBDC1CE0101964C01F7019381B5
S1130680F60193FD859193FF81916F01882309F40D
S1130690ABC1853239F493FD859193FF81916F014C
S11306A0853229F4B70190E00E941405E7CF512C5C
S11306B0312C20E02032A0F48B3269F030F4803207
S11306C059F0833269F420612CC08D3239F08033C3
S11306D039F4216026C02260246023C0286021C030
S11306E027FD27C030ED380F3A3078F426FF06C0D6
S11306F0FAE05F9E300D1124532E13C08AE0389E19
S1130700300D1124332E20620CC08E3221F426FDCC
S11307106BC1206406C08C3611F4206802C0883690
S113072041F4F60193FD859193FF81916F0181114D
S1130730C1CF982F9F7D9554933028F40C5F1F4FA1
S1130740FFE3F9830DC0833631F0833771F08335CD
S113075009F05BC022C0F801808189830E5F1F4FBE
S113076044244394512C540115C03801F2E06F0E17
S1130770711CF801A080B18026FF03C0652D70E0D4
S113078002C06FEF7FEFC5012C870E9409052C0181
S113079083012C852F77222E17C03801F2E06F0ECB
S11307A0711CF801A080B18026FF03C0652D70E0A4
S11307B002C06FEF7FEFC5012C870E94FE042C015D
S11307C02C852068222E830123FC1BC0832D90E0FE
S11307D048165906B0F4B70180E290E00E9414056F
S11307E03A94F4CFF50127FC859127FE81915F01AE
S11307F0B70190E00E94140531103A94F1E04F1AC9
S113080051084114510471F7E5C0843611F089365A
S113081039F5F80127FF07C06081718182819381D6
S11308200C5F1F4F08C060817181072E000C880B7C
S1130830990B0E5F1F4F2F76722E97FF09C090956C
S11308408095709561957F4F8F4F9F4F2068722ED2
S11308502AE030E0A4010E944C05A82EA81844C048
S1130860853729F42F7EB22E2AE030E025C0F22FFE
S1130870F97FBF2E8F36C1F018F4883579F0B4C0F3
S1130880803719F0883721F0AFC02F2F2061B22EA6
S1130890B4FE0DC08B2D8460B82E09C024FF0AC09D
S11308A09F2F9660B92E06C028E030E005C020E1F5
S11308B030E002C020E132E0F801B7FE07C06081F9
S11308C07181828193810C5F1F4F06C060817181A9
S11308D080E090E00E5F1F4FA4010E944C05A82EFB
S11308E0A818FB2DFF777F2E76FE0BC0372D3E7F99
S11308F0A51450F474FE0AC072FC08C0372D3E7E65
S113090005C0BA2C372D03C0BA2C01C0B52C34FF56
S11309100DC0FE01EA0DF11D8081803311F4397E92
S113092009C032FF06C0B394B39404C0832F867801
S113093009F0B39433FD13C030FF06C05A2CB3142E
S113094018F4530C5B18B32CB31468F4B70180E2A9
S113095090E03C870E941405B3943C85F5CFB31412
S113096010F43B1801C0312C34FF12C0B70180E3EE
S113097090E03C870E9414053C8532FF17C031FD8E
S113098003C088E790E002C088E590E0B7010CC09E
S1130990832F867859F031FF02C08BE201C080E2D8
S11309A037FD8DE2B70190E00E941405A51438F4D8
S11309B0B70180E390E00E9414055A94F7CFAA94FB
S11309C0F401EA0DF11D8081B70190E00E94140545
S11309D0A110F5CF332009F451CEB70180E290E0A5
S11309E00E9414053A94F6CFF7018681978102C0DC
S11309F08FEF9FEF2C96E2E10C94C605FC01059065
S1130A00615070400110D8F7809590958E0F9F1F0C
S1130A100895FC016150704001900110D8F7809551
S1130A2090958E0F9F1F08950F931F93CF93DF937D
S1130A30FB01238121FD03C08FEF9FEF28C022FF1C
S1130A4016C046815781248135814217530744F4E7
S1130A50A081B1819D012F5F3F4F318320838C930F
S1130A60268137812F5F3F4F3783268310C0EB01E8
S1130A70092F182F0084F185E02D0995892BE1F6C3
S1130A808E819F8101969F838E83812F902FDF918A
S1130A90CF911F910F910895FA01AA27283051F19F
S1130AA0203181F1E8946F936E7F6E5F7F4F8F4F9B
S1130AB09F4FAF4FB1E03ED0B4E03CD0670F781FFA
S1130AC0891F9A1FA11D680F791F8A1F911DA11DDF
S1130AD06A0F711D811D911DA11D20D009F4689418
S1130AE03F912AE0269F11243019305D3193DEF6C0
S1130AF0CF010895462F4770405D4193B3E00FD076
S1130B00C9F7F6CF462F4F70405D4A3318F0495D60
S1130B1031FD4052419302D0A9F7EACFB4E0A69543
S1130B209795879577956795BA95C9F70097610565
S1130B30710508959B01AC010A2E069457954795BB
S1130B4037952795BA95C9F7620F731F841F951FB0
S1130B50A01D08952F923F924F925F926F927F92C1
S1130B608F929F92AF92BF92CF92DF92EF92FF92B9
S1130B700F931F93CF93DF93CDB7DEB7CA1BDB0B65
S1130B800FB6F894DEBF0FBECDBF09942A8839880A
S1130B9048885F846E847D848C849B84AA84B98411
S1130BA0C884DF80EE80FD800C811B81AA81B9811D
S1130BB0CE0FD11D0FB6F894DEBF0FBECDBFED0131
S1090BC00895F894FFCF34
S1130BC60100010001416761696E3F00256C7520D3
S1130BD66D73004A617920557061646879617900A2
S9030000FC
