S01800006C61625F61737369676E6D656E7434432E73726563CE
S11300000C9434000C9451000C94C8010C945100CD
S11300100C9451000C9451000C9451000C94510018
S11300200C9451000C9451000C9451000C94510008
S11300300C9451000C9451000C94ED020C9451005A
S11300400C9451000C9451000C9451000C945100E8
S11300500C9451000C9451000C9451000C945100D8
S11300600C9451000C94510011241FBECFEFD8E022
S1130070DEBFCDBF11E0A0E0B1E0E0E9F7E002C0EF
S113008005900D92AA31B107D9F721E0AAE1B1E0B8
S113009001C01D92A134B207E1F70E94A1030C94A0
S11300A0C6030C94000087B18F6087B987B1806361
S11300B087B9089598B182958F70907F892B88B9FC
S11300C04498459A8FE99FE00197F1F700C000003A
S11300D045988FE99FE00197F1F700C0000008956B
S11300E098B1282F22952F70907F922B98B944981D
S11300F0459AEFE9FFE03197F1F700C00000459819
S1130100EFE3FFE13197F1F700C0000098B18F7081
S1130110907F892B88B94498459A8FE99FE001978D
S1130120F1F700C000004598EFE3FFE13197F1F7E4
S113013000C00000089598B1282F22952F70907F59
S1130140922B98B9449A459AEFE9FFE03197F1F779
S113015000C000004598EFE9FFE03197F1F700C0D7
S1130160000098B18F70907F892B88B9449A459A82
S11301708FE99FE00197F1F700C000004598EFE395
S1130180FFE13197F1F700C0000008950E94530089
S113019080E30E945A008FE090E40197F1F700C0D9
S11301A0000080E30E945A008FE891E00197F1F784
S11301B000C0000080E30E945A0080E20E945A00BE
S11301C088E20E94700088E00E94700081E00E9432
S11301D0700086E00E9470008FE00E9470009FEF24
S11301E02BED85E0915020408040E1F700C00000F5
S11301F0089581E00E9470000895613009F4805CE4
S113020080680E9470000895EF92FF920F931F93ED
S1130210CF93DF938C017C01C0E0D0E007C0F701ED
S113022081917F0190E00E949B002196F80101904A
S11302300020E9F73197E01BF10BCE17DF0778F3C5
S1130240DF91CF911F910F91FF90EF90089510923D
S11302503D0110923C0110923B0110923A01109220
S11302603901109238011092370110923601109220
S11302703501109234011092330110923201109220
S113028031011092300110922F0110922E01109220
S11302902D0110922C0110922B0110922A01109220
S11302A02701109226011092290110922801109220
S11302B02501109224011092230110922201109220
S11302C021011092200110921F0110921E01109220
S11302D01D0110921C0110921B0110921A01089525
S11302E080913E01813089F028F08230B1F0833072
S11302F019F108950E94F90081E090E09093400183
S113030080933F0180933E01089510924001109222
S11303103F0182E080933E0108950E9427011092DC
S1130320400110923F010E94F90083E091E00E9495
S1130330040110923E0108950E94F90010923E01BA
S113034008958FE599E00197F1F700C000008091CE
S11303500201823051F08330A9F08130C1F44B990D
S113036016C082E08093020108954B9907C083E090
S1130370809302010E947001E99A089581E08093BC
S1130380020108954B9B03C082E08093020108950B
S11303901F920F920FB60F9211242F933F934F93F6
S11303A05F936F937F938F939F93AF93BF93EF93D9
S11303B0FF93E9980E94A101FF91EF91BF91AF9142
S11303C09F918F917F916F915F914F913F912F9169
S11303D00F900FBE0F901F9018950E94C600E9E67B
S11303E0F0E0808188608083E99A89EF87BDEEE63A
S11303F0F0E080818260808384B5826084BD83E084
S113040085BD089580913C0190913D0101968A300B
S1130410910529F090933D0180933C0113C0109203
S11304203D0110923C0181E090E090931B01809388
S11304301A0180913A0190913B01019690933B01FE
S113044080933A0180913A0190913B010A9799F483
S113045010923B0110923A0181E090E090931D01CB
S113046080931C01809138019091390101969093F9
S113047039018093380180913801909139010A97AC
S113048099F4109239011092380181E090E0909330
S11304901F0180931E0180913601909137010196CE
S11304A09093370180933601809136019091370102
S11304B00A9799F4109237011092360181E090E086
S11304C09093210180932001809134019091350112
S11304D00196909335018093340180913401909179
S11304E035010A9799F4109235011092340181E094
S11304F090E09093230180932201809132019091A6
S1130500330101969093330180933201809132013B
S1130510909133010A9799F41092330110923201A9
S113052081E090E090932501809324018091300133
S11305309091310101969093310180933001809123
S11305403001909131010A9799F41092310110927F
S1130550300181E090E090932701809326018091FF
S11305602E0190912F01019690932F0180932E01DB
S113057080912E0190912F010A9799F410922F01E6
S113058010922E0181E090E090932901809328013C
S113059080912C0190912D01019690932D018093CF
S11305A02C0180912C0190912D010A9769F41092ED
S11305B02D0110922C0180912A0190912B0101961A
S11305C090932B0180932A0180912A0190912B0111
S11305D00A9711F40E94270108951F920F920FB6F3
S11305E00F9211242F933F934F935F936F937F93B5
S11305F08F939F93AF93BF93EF93FF9380910001E9
S113060090910101181619064CF480910001909103
S113061001010197909301018093000180913F01B2
S113062090914001892B11F00E940202FF91EF91F9
S1130630BF91AF919F918F917F916F915F914F91F6
S11306403F912F910F900FBE0F901F90189560E06F
S113065070E080E090E00E94FD008091280190917C
S11306602901892B39F080912C0190912D01C0969C
S11306700E949B008091260190912701892B39F0DB
S113068080912E0190912F01C0960E949B00809131
S1130690240190912501892B39F0809130019091AA
S11306A03101C0960E949B00809122019091230108
S11306B0892B39F08091320190913301C0960E94C8
S11306C09B008091200190912101892B39F0809128
S11306D0340190913501C0960E949B0080911E01C7
S11306E090911F01892B39F0809136019091370147
S11306F0C0960E949B0080911C0190911D01892B42
S113070039F08091380190913901C0960E949B0084
S113071080911A0190911B01892B39F080913A0143
S113072090913B01C0960E949B0080913C01909166
S11307303D01C0960E949B008AE091E00E94040162
S113074008950E94ED01789461E070E080E090E00B
S11307500E94FD008DE091E00E940401C1E0D0E020
S11307600E94A101809100019091010118161906BF
S1130770BCF380913F0190914001892B89F30E9441
S11307802703D0930101C0930001EACFF894FFCF6F
S1130790010001416761696E3F006D73004A617930
S10D07A020557061646879617900E6
S9030000FC
