:100000000C9434000C9451000C9451000C94510049
:100010000C9451000C9451000C9451000C9451001C
:100020000C9451000C9451000C9451000C9451000C
:100030000C9451000C9451000C9451000C945100FC
:100040000C9451000C9451000C94FD000C94510040
:100050000C9451000C9451000C9451000C945100DC
:100060000C9451000C94510011241FBECFEFD8E026
:10007000DEBFCDBF12E0A0E0B1E0E2E8FBE002C0ED
:1000800005900D92A430B107D9F722E0A4E0B2E0C8
:1000900001C01D92A93CB207E1F70E9446020C94F0
:1000A000BF050C94000087B18F6087B987B180636A
:1000B00087B9089598B182958F70907F892B88B900
:1000C0004498459A8FE99FE00197F1F700C000003E
:1000D00045988FE99FE00197F1F700C0000008956F
:1000E00098B1282F22952F70907F922B98B9449821
:1000F000459AEFE9FFE03197F1F700C0000045981D
:10010000EFE3FFE13197F1F700C0000098B18F7085
:10011000907F892B88B94498459A8FE99FE0019791
:10012000F1F700C000004598EFE3FFE13197F1F7E8
:1001300000C00000089598B1282F22952F70907F5D
:10014000922B98B9449A459AEFE9FFE03197F1F77D
:1001500000C000004598EFE9FFE03197F1F700C0DB
:10016000000098B18F70907F892B88B9449A459A86
:100170008FE99FE00197F1F700C000004598EFE399
:10018000FFE13197F1F700C0000008950E9453008D
:1001900080E30E945A008FE090E40197F1F700C0DD
:1001A000000080E30E945A008FE891E00197F1F788
:1001B00000C0000080E30E945A0080E20E945A00C2
:1001C00088E20E94700088E00E94700081E00E9436
:1001D000700086E00E9470008FE00E9470009FEF28
:1001E0002BED85E0915020408040E1F700C00000F9
:1001F000089581E00E94700008951F920F920FB63B
:100200000F9211242F933F934F935F936F937F939C
:100210008F939F93AF93BF93CF93DF93EF93FF930E
:10022000E6ECF0E0808180838D3089F18F37C1F476
:10023000C3ECD2E06A817B8180E290E00E941C05E1
:100240006A817B8188E090E00E941C0580915D02BC
:1002500090915E02019790935E0280935D022EC0A2
:1002600020915D0230915E02F901E15AFD4F8083D9
:10027000213331053CF42F5F3F4F30935E022093D2
:100280005D021CC010925E0210925D0217C0609168
:10029000C5027091C6028AE090E00E941C05E091C0
:1002A0005D02F0915E02E15AFD4F108281E0809381
:1002B0005C02E1ECF0E0808180588083FF91EF9157
:1002C000DF91CF91BF91AF919F918F917F916F916E
:1002D0005F914F913F912F910F900FBE0F901F9004
:1002E000189510925C0210925E0210925D02E1EC91
:1002F000F0E08081806880830895EF92FF920F93F1
:100300001F93CF93DF938C010E94F9007801C0E026
:10031000D0E007C0F70181917F0190E00E949B002F
:100320002196F80101900020E9F73197E01BF10BCD
:10033000CE17DF0778F3DF91CF911F910F91FF90D8
:10034000EF9008956FE572E08EE091E00E94130552
:10035000892B79F481E090E0209108023091090224
:10036000232B11F080E090E0909309028093080223
:1003700021C06FE572E082E191E00E941305892BB4
:1003800069F42091C5023091C6024FE150E061E06E
:1003900070E085E191E00E9454050CC02091C502F7
:1003A0003091C6024AE250E061E070E085E391E0FE
:1003B0000E9454058091080290910902009789F4E7
:1003C00080E691E00E947D012091C5023091C60235
:1003D00047E150E061E070E08FE691E00E94540553
:1003E00012C0019781F487E891E00E947D0120917D
:1003F000C5023091C60247E150E061E070E086E955
:1004000091E00E945405109207021092060208958E
:10041000892BC1F495B180E2892785B92FEF84E358
:100420009CE0215080409040E1F700C000008091A6
:1004300006029091070286509F4F90930702809387
:100440000602089595B180E2892785B92FE38DE0F2
:1004500093E0215080409040E1F700C0000060919F
:10046000060270910702072E000C880B990B0E9460
:10047000870420E030E04AE752E40E94E3030E9450
:100480004F047093070260930602089580E284B9D6
:100490000E94A6020E94C600C3ECD2E080E091E078
:1004A0009D838C83998388839B838A8378940E941D
:1004B00071012A813B8145E250E061E070E08EEA03
:1004C00091E00E94540580E691E00E947D018091B8
:1004D0000802909109020E94080280910602909100
:1004E0000702803197427CF18091040290910502CD
:1004F000892B21F52A813B8147E250E061E070E0E1
:1005000084ED91E00E94540581E090E09093050213
:100510008093040280915C028130C9F680910602CA
:10052000909107028031974294F20E9471010E94DB
:10053000A2011092050210920402C9CF80915C02C0
:10054000813029F6F2CF80915C02C1CF87E680939B
:10055000C40088E18093C1000895CF93C82F8730ED
:1005600069F42091C7023091C80247E050E061E091
:1005700070E08CEF91E00E9454050CC08A3019F4B1
:100580008DE00E94AD02E0ECF0E0908195FFFDCFA0
:10059000C093C60080E090E0CF9108956F927F9263
:1005A0008F929F92AF92BF92CF92DF92EF92FF9283
:1005B0000F931F93CF93DF9320915A0230915B02E8
:1005C000232B09F0D5C08C010F2EFAE08F2EF2E01C
:1005D0009F2EF02DC0ECD0E00F2EF6ECCF2ED12CBC
:1005E000F02D54010F2EF9E06F2EF2E07F2EF02D4A
:1005F00088818823ECF7888184FDCDC0888183FDC4
:10060000CDC0F60180818D3011F08A3069F48AE026
:10061000F4018083B8010E94AD028AE092E09093D9
:100620005B0280935A02A4C0893039F090EE980F93
:100630009F3520F0803AB8F001C080E2F9E58F16CE
:10064000F2E09F0629F4B80187E00E94AD02D0CF06
:1006500074019FEFE91AF90AF4018083B8010E943E
:10066000AD024701C5CF8231D1F130F4833009F4B6
:1006700098C08830E9F0BCCF873129F08F37C1F0BE
:10068000853179F0B5CFFAE08F16F2E09F0609F0D8
:1006900008F4AECFF40131978081803209F04DC06B
:1006A000A7CF8AE0881682E0980609F070F5A0CFFF
:1006B0009AE0891692E0990609F008F499CFB801FA
:1006C00088E00E94AD02B80180E20E94AD02B8014C
:1006D00088E00E94AD02E1E08E1A910889CFB8014E
:1006E0008DE00E94AD02FAE08F16F2E09F0609F05D
:1006F00008F47ECF7501B801F70181917F010E9456
:10070000AD02E814F904B9F773CFB80188E00E948C
:10071000AD02B80180E20E94AD02B80188E00E94FB
:10072000AD02F1E08F1A91088AE0881682E09806FF
:1007300061F7F30131964F015BCF7401F1E0EF1ADD
:10074000F108B80188E00E94AD02B80180E20E9481
:10075000AD02B80188E00E94AD024701EA14FB0433
:1007600009F446CFF70182917F01803251F740CFE3
:10077000E0915A02F0915B02CF01019690935B02E7
:1007800080935A0280818A3021F410925B02109289
:100790005A0290E008C08EEF9FEF05C08FEF9FEFE9
:1007A00002C08FEF9FEFDF91CF911F910F91FF90CC
:1007B000EF90DF90CF90BF90AF909F908F907F9001
:1007C0006F9008955058BB27AA270E94FA030C94F3
:1007D000D9040E94CB0438F00E94D20420F039F4EE
:1007E0009F3F19F426F40C94C8040EF4E095E7FB3F
:1007F0000C94C204E92F0E94EA0458F3BA17620766
:1008000073078407950720F079F4A6F50C940C057E
:100810000EF4E0950B2EBA2FA02D0B01B90190011B
:100820000C01CA01A0011124FF27591B99F0593F5F
:1008300050F4503E68F11A16F040A22F232F342FA7
:100840004427585FF3CF469537952795A795F040F5
:100850005395C9F77EF41F16BA0B620B730B840B0A
:10086000BAF09150A1F0FF0FBB1F661F771F881FC2
:10087000C2F70EC0BA0F621F731F841F48F487951A
:1008800077956795B795F7959E3F08F0B0CF93950C
:10089000880F08F09927EE0F9795879508950E9485
:1008A00056046894B1110C940D0508950E94F20449
:1008B00088F09F5798F0B92F9927B751B0F0E1F021
:1008C000660F771F881F991F1AF0BA95C9F714C0D1
:1008D000B13091F00E940C05B1E008950C940C0524
:1008E000672F782F8827B85F39F0B93FCCF386950A
:1008F00077956795B395D9F73EF490958095709567
:1009000061957F4F8F4F9F4F0895E89409C097FBE3
:100910003EF490958095709561957F4F8F4F9F4FD6
:100920009923A9F0F92F96E9BB279395F69587951A
:1009300077956795B795F111F8CFFAF4BB0F11F4DD
:1009400060FF1BC06F5F7F4F8F4F9F4F16C0882384
:1009500011F096E911C0772321F09EE8872F762FBA
:1009600005C0662371F096E8862F70E060E02AF0FB
:100970009A95660F771F881FDAF7880F96958795E7
:1009800097F9089597F99F6780E870E060E008950F
:100990009FEF80EC089500240A9416161706180697
:1009A0000906089500240A94121613061406050673
:1009B0000895092E0394000C11F4882352F0BB0F04
:1009C00040F4BF2B11F460FF04C06F5F7F4F8F4F67
:1009D0009F4F089557FD9058440F551F59F05F3FA2
:1009E00071F04795880F97FB991F61F09F3F79F051
:1009F00087950895121613061406551FF2CF4695D3
:100A0000F1DF08C0161617061806991FF1CF869554
:100A10007105610508940895E894BB276627772738
:100A2000CB0197F90895FB01DC018D9101908019AC
:100A30000110D9F3990B08950F931F93CF93DF9370
:100A4000FB01238121FD03C08FEF9FEF28C022FF10
:100A500016C046815781248135814217530744F4DB
:100A6000A081B1819D012F5F3F4F318320838C9303
:100A7000268137812F5F3F4F3783268310C0EB01DC
:100A8000092F182F0084F185E02D0995892BE1F6B7
:100A90008E819F8101969F838E83812F902FDF917E
:100AA000CF911F910F910895A0E0B0E0EAE5F5E045
:100AB0000C948E055B014A017901D90113962C91A2
:100AC00021FF1DC0C0E0D0E0C815D905D9F08C01C8
:100AD0006C01CA0CDB1CC8010C151D0571F00F5F01
:100AE0001F4FD7011896ED91FC911997B701DC01C2
:100AF0008C910995892B79F305C02196E5CF80E08B
:100B000090E001C0CE01CDB7DEB7ECE00C94AA05B1
:100B10002F923F924F925F926F927F928F929F920D
:100B2000AF92BF92CF92DF92EF92FF920F931F93FB
:100B3000CF93DF93CDB7DEB7CA1BDB0B0FB6F894AC
:100B4000DEBF0FBECDBF09942A88398848885F84EC
:100B50006E847D848C849B84AA84B984C884DF805D
:100B6000EE80FD800C811B81AA81B981CE0FD11D41
:100B70000FB6F894DEBF0FBECDBFED010895F89417
:020B8000FFCFA5
:100B82000000000300000000AD02CE020000796503
:100B920073006E6F0046696E652C206E6F206D6F5C
:100BA20064652077696C6C206265206368616E679A
:100BB20065642E0A00686D6D2E2E2E20776569728F
:100BC2006420696E7075743F2049206E65656420EB
:100BD2006120796573206F722061206E6F210A0097
:100BE2003220486572747A204D6F6465212100437A
:100BF20068616E67696E6720746F2032487A206D73
:100C02006F64652E200A003820486572747A204D80
:100C12006F64652121004368616E67696E672074A5
:100C22006F2038487A206D6F64652E200A0048656F
:100C32006C6C6F2C2077656C636F6D6520746F2010
:100C42004C61622041737369676E6D656E74203307
:100C520042200A00576F756C6420796F75206C69A9
:100C62006B6520746F206368616E6765206D6F64C9
:100C720065733F207965732F6E6F0A002A72696E61
:040C8200672A0A00D3
:00000001FF
