:100000000C9434000C9451000C9451000C94510049
:100010000C9451000C9451000C9451000C9451001C
:100020000C9451000C9451000C9451000C9451000C
:100030000C9451000C9451000C9451000C945100FC
:100040000C9451000C9451000C9451000C945100EC
:100050000C9451000C9451000C9451000C945100DC
:100060000C9451000C94510011241FBECFEFD8E026
:10007000DEBFCDBF11E0A0E0B1E0EEE9F9E002C0E3
:1000800005900D92A631B107D9F721E0A6E1B1E0C4
:1000900001C01D92AB32B207E1F70E94D5010C946A
:1000A000CD040C94000087B18F6087B987B180635D
:1000B00087B9089598B182958F70907F892B88B900
:1000C0004498459A8FE99FE00197F1F700C000003E
:1000D00045988FE99FE00197F1F700C0000008956F
:1000E00098B1282F22952F70907F922B98B9449821
:1000F000459AEFE9FFE03197F1F700C0000045981D
:10010000EFE3FFE13197F1F700C0000098B18F7085
:10011000907F892B88B94498459A8FE99FE0019791
:10012000F1F700C000004598EFE3FFE13197F1F7E8
:1001300000C00000089598B1282F22952F70907F5D
:10014000922B98B9449A459AEFE9FFE03197F1F77D
:1001500000C000004598EFE9FFE03197F1F700C0DB
:10016000000098B18F70907F892B88B9449A459A86
:100170008FE99FE00197F1F700C000004598EFE399
:10018000FFE13197F1F700C0000008950E9453008D
:1001900080E30E945A008FE090E40197F1F700C0DD
:1001A000000080E30E945A008FE891E00197F1F788
:1001B00000C0000080E30E945A0080E20E945A00C2
:1001C00088E20E94700088E00E94700081E00E9436
:1001D000700086E00E9470008FE00E9470009FEF28
:1001E0002BED85E0915020408040E1F700C00000F9
:1001F00008950F931F93CF93DF93009781F06623A9
:1002000071F0EC016150062F10E00F5F1F4F080FD7
:10021000191F89910E949B00C017D107D1F7DF9168
:10022000CF911F910F910895613009F4805C80682F
:100230000E9470000895EF92FF920F931F93CF9347
:10024000DF938C017C01C0E0D0E006C0F701819112
:100250007F010E949B002196F80101900020E9F7A0
:100260003197E01BF10BCE17DF0780F3DF91CF91C1
:100270001F910F91FF90EF9008950E94C60060E0DB
:1002800080E00E94140180E091E00E941B0161E087
:1002900080E00E94140189E091E00E941B01ECE7DC
:1002A000F0E0808186608083EAE7F0E0808187600B
:1002B000808380818068808384B18C6184B98CB5AF
:1002C00083658CBD08952A988EBD0DB407FEFDCFC1
:1002D0002A9A8EB50895EAE7F0E0808180648083F1
:1002E000808186FDFDCF8091780090E090932A0177
:1002F00080932901209179008091290190912A0110
:10030000922B90932A018093290108950F931F93B4
:10031000CF93DF938091290190912A01969587953B
:10032000969587959F938F9301E111E01F930F930B
:10033000C8E1D1E0DF93CF930E94F50160E088E04F
:100340000E941401FE0101900020E9F73197BF01DE
:1003500068517140CE010E94F900809117018F937E
:10036000809116018F931F930F93DF93CF930E9479
:10037000F50161E088E00E94140109900020E9F78E
:100380002197BE016851714088E191E00E94F90017
:100390008DB79EB70C960FB6F8949EBF0FBE8DBF5B
:1003A000DF91CF911F910F9108950E943D017894A4
:1003B0000E946B018091290190912A019695879561
:1003C000969587950E94630190E090931701809322
:1003D00016010E9486012FEF81EE94E021508040AB
:1003E0009040E1F700C00000E3CFAEE0B0E0EBEFFB
:1003F000F1E00C94A4040D891E8986E08C831A8395
:1004000009838FEF9FE79E838D83AE01475E5F4F29
:100410006F89788DCE0101960E9418022F81388550
:10042000F801E20FF31F10822E96E4E00C94C00452
:10043000ACE0B0E0EEE1F2E00C9496047C016B01DC
:100440008A01FC0117821682838181FFBDC1CE0122
:1004500001964C01F7019381F60193FD859193FF7D
:1004600081916F01882309F4ABC1853239F493FD82
:10047000859193FF81916F01853229F4B70190E056
:100480000E940004E7CF512C312C20E02032A0F450
:100490008B3269F030F4803259F0833269F4206194
:1004A0002CC08D3239F0803339F4216026C02260AF
:1004B000246023C0286021C027FD27C030ED380FFD
:1004C0003A3078F426FF06C0FAE05F9E300D112422
:1004D000532E13C08AE0389E300D1124332E206233
:1004E0000CC08E3221F426FD6BC1206406C08C3610
:1004F00011F4206802C0883641F4F60193FD85911D
:1005000093FF81916F018111C1CF982F9F7D9554E9
:10051000933028F40C5F1F4FFFE3F9830DC083363F
:1005200031F0833771F0833509F05BC022C0F801E8
:10053000808189830E5F1F4F44244394512C5401C2
:1005400015C03801F2E06F0E711CF801A080B18077
:1005500026FF03C0652D70E002C06FEF7FEFC5017D
:100560002C870E94F5032C0183012C852F77222EE6
:1005700017C03801F2E06F0E711CF801A080B18045
:1005800026FF03C0652D70E002C06FEF7FEFC5014D
:100590002C870E94EA032C012C852068222E8301DF
:1005A00023FC1BC0832D90E048165906B0F4B70118
:1005B00080E290E00E9400043A94F4CFF50127FC19
:1005C000859127FE81915F01B70190E00E940004B0
:1005D00031103A94F1E04F1A51084114510471F767
:1005E000E5C0843611F0893639F5F80127FF07C0D8
:1005F00060817181828193810C5F1F4F08C060818F
:100600007181072E000C880B990B0E5F1F4F2F7600
:10061000722E97FF09C090958095709561957F4FD8
:100620008F4F9F4F2068722E2AE030E0A4010E9475
:100630003804A82EA81844C0853729F42F7EB22E7E
:100640002AE030E025C0F22FF97FBF2E8F36C1F0AF
:1006500018F4883579F0B4C0803719F0883721F064
:10066000AFC02F2F2061B22EB4FE0DC08B2D846041
:10067000B82E09C024FF0AC09F2F9660B92E06C06D
:1006800028E030E005C020E130E002C020E132E0A7
:10069000F801B7FE07C060817181828193810C5F90
:1006A0001F4F06C06081718180E090E00E5F1F4F98
:1006B000A4010E943804A82EA818FB2DFF777F2ED6
:1006C00076FE0BC0372D3E7FA51450F474FE0AC091
:1006D00072FC08C0372D3E7E05C0BA2C372D03C0F2
:1006E000BA2C01C0B52C34FF0DC0FE01EA0DF11D7E
:1006F0008081803311F4397E09C032FF06C0B39483
:10070000B39404C0832F867809F0B39433FD13C0EB
:1007100030FF06C05A2CB31418F4530C5B18B32CDA
:10072000B31468F4B70180E290E03C870E940004B3
:10073000B3943C85F5CFB31410F43B1801C0312CB1
:1007400034FF12C0B70180E390E03C870E940004B0
:100750003C8532FF17C031FD03C088E790E002C03E
:1007600088E590E0B7010CC0832F867859F031FFFF
:1007700002C08BE201C080E237FD8DE2B70190E05C
:100780000E940004A51438F4B70180E390E00E94B1
:1007900000045A94F7CFAA94F401EA0DF11D808168
:1007A000B70190E00E940004A110F5CF332009F4B6
:1007B00051CEB70180E290E00E9400043A94F6CF57
:1007C000F7018681978102C08FEF9FEF2C96E2E1BF
:1007D0000C94B204FC010590615070400110D8F7F0
:1007E000809590958E0F9F1F0895FC016150704079
:1007F00001900110D8F7809590958E0F9F1F089556
:100800000F931F93CF93DF93FB01238121FD03C03F
:100810008FEF9FEF28C022FF16C0468157812481A9
:1008200035814217530744F4A081B1819D012F5FA8
:100830003F4F318320838C93268137812F5F3F4F39
:100840003783268310C0EB01092F182F0084F18510
:10085000E02D0995892BE1F68E819F8101969F837A
:100860008E83812F902FDF91CF911F910F9108954B
:10087000FA01AA27283051F1203181F1E8946F93D1
:100880006E7F6E5F7F4F8F4F9F4FAF4FB1E03ED077
:10089000B4E03CD0670F781F891F9A1FA11D680F15
:1008A000791F8A1F911DA11D6A0F711D811D911D48
:1008B000A11D20D009F468943F912AE0269F1124BD
:1008C0003019305D3193DEF6CF010895462F477021
:1008D000405D4193B3E00FD0C9F7F6CF462F4F707C
:1008E000405D4A3318F0495D31FD4052419302D0DA
:1008F000A9F7EACFB4E0A695979587957795679580
:10090000BA95C9F700976105710508959B01AC017F
:100910000A2E06945795479537952795BA95C9F7A6
:10092000620F731F841F951FA01D08952F923F9281
:100930004F925F926F927F928F929F92AF92BF92EF
:10094000CF92DF92EF92FF920F931F93CF93DF939B
:10095000CDB7DEB7CA1BDB0B0FB6F894DEBF0FBEF8
:10096000CDBF09942A88398848885F846E847D8445
:100970008C849B84AA84B984C884DF80EE80FD8047
:100980000C811B81AA81B981CE0FD11D0FB6F894BD
:0E099000DEBF0FBECDBFED010895F894FFCF7E
:10099E004D61737465723A2000536C6176653A202E
:0609AE000025642000009A
:00000001FF
