S00F00006C616232615F632E7372656391
S11300000C9434000C9451000C9451000C94510045
S11300100C9451000C9451000C9451000C94510018
S11300200C9451000C9451000C9451000C94510008
S11300300C9451000C9451000C9451000C945100F8
S11300400C9451000C9451000C9453000C945100E6
S11300500C9451000C9451000C9451000C945100D8
S11300600C9451000C94510011241FBECFEFD8E022
S1130070DEBFCDBF11E0A0E0B1E0ECE3F9E002C0E7
S113008005900D92A634B107D9F721E0A6E4B1E0BA
S113009001C01D92AD3EB207E1F70E94FD000C9431
S11300A09C040C9400001F920F920FB60F9211241F
S11300B02F933F934F935F936F937F938F939F936C
S11300C0AF93BF93EF93FF93E6ECF0E080818083DE
S11300D08D30B9F020919F013091A001F901EF55C5
S11300E0FE4F8083233131053CF42F5F3F4F309323
S11300F0A00120939F011CC01092A00110929F01A7
S113010017C06091E9017091EA018AE090E00E94D1
S1130110F903E0919F01F091A001EF55FE4F108289
S113012081E080939E01E1ECF0E08081805880833F
S1130130FF91EF91BF91AF919F918F917F916F91BB
S11301405F914F913F912F910F900FBE0F901F9091
S1130150189510929E011092A00110929F01E1EC5B
S1130160F0E0808180688083089595B180E28927DA
S113017085B980910E0190910F01029751F42FEFF0
S113018084E39CE0215080409040E1F700C00000EF
S113019008952FE38DE093E0215080409040E1F7F3
S11301A000C00000089560E171E081EA91E00E94DE
S11301B0F003892B99F480910E0190910F0102971D
S11301C039F488E090E090930F0180930E0106C00B
S11301D082E090E090930F0180930E0110924B0106
S11301E010924A011092490110924801109247015D
S11301F0109246010E94A90008950E948301E7EE2F
S1130200F1E080E091E095838483918380839383FC
S113021082839C0147E050E061E070E084E191E07A
S11302200E94310480E284B90E94A9007894C0E05D
S1130230D0E0EE24E394F12C07EE11E00E94B50027
S113024080910E0190910F018230910559F48091B3
S11302504A0190914B0186509F4F90934B0180939C
S11302604A0118C00897B1F460914A0170914B019A
S1130270072E000C880B990B0E94640320E030E0E9
S11302804AE752E40E94C0020E942C0370934B017F
S113029060934A0180914A0190914B0188389341BF
S11302A09CF0E0924601F0924701209731F5F80165
S11302B02281338141E250E06E2D7F2D8CE191E06B
S11302C00E943104CE2DDF2D80919E01813009F0F2
S11302D0B5CF8091460190914701019709F0AECFC7
S11302E0109247011092460110924B0110924A015C
S11302F00E94D300C0E0D0E0A1CF80919E01813064
S113030009F09CCFEDCF87E68093C40088E1809309
S1130310C1000895CF93C82F873069F42091EB0171
S11303203091EC0147E050E061E070E08EE391E051
S11303300E9431040CC08A3019F48DE00E948A01B5
S1130340E0ECF0E0908195FFFDCFC093C60080E023
S113035090E0CF9108956F927F928F929F92AF9287
S1130360BF92CF92DF92EF92FF920F931F93CF939E
S1130370DF9320919C0130919D01232B09F0D5C07E
S11303808C010F2EFCE48F2EF1E09F2EF02DC0EC9B
S1130390D0E00F2EF6ECCF2ED12CF02D54010F2EE1
S11303A0FBE46F2EF1E07F2EF02D88818823ECF79B
S11303B0888184FDCDC0888183FDCDC0F601808114
S11303C08D3011F08A3069F48AE0F4018083B80139
S11303D00E948A018CE491E090939D0180939C019A
S11303E0A4C0893039F090EE980F9F3520F0803A00
S11303F0B8F001C080E2FBE98F16F1E09F0629F412
S1130400B80187E00E948A01D0CF74019FEFE91AF6
S1130410F90AF4018083B8010E948A014701C5CF1B
S11304208231D1F130F4833009F498C08830E9F096
S1130430BCCF873129F08F37C1F0853179F0B5CF42
S1130440FCE48F16F1E09F0609F008F4AECFF40146
S113045031978081803209F04DC0A7CF8CE4881693
S113046081E0980609F070F5A0CF9CE4891691E02C
S1130470990609F008F499CFB80188E00E948A012E
S1130480B80180E20E948A01B80188E00E948A01D2
S1130490E1E08E1A910889CFB8018DE00E948A01AB
S11304A0FCE48F16F1E09F0609F008F47ECF750195
S11304B0B801F70181917F010E948A01E814F904CF
S11304C0B9F773CFB80188E00E948A01B80180E2CD
S11304D00E948A01B80188E00E948A01F1E08F1A23
S11304E091088CE4881681E0980661F7F30131964F
S11304F04F015BCF7401F1E0EF1AF108B80188E015
S11305000E948A01B80180E20E948A01B80188E051
S11305100E948A014701EA14FB0409F446CFF7015B
S113052082917F01803251F740CFE0919C01F0919C
S11305309D01CF01019690939D0180939C01808140
S11305408A3021F410929D0110929C0190E008C021
S11305508EEF9FEF05C08FEF9FEF02C08FEF9FEFED
S1130560DF91CF911F910F91FF90EF90DF90CF908B
S1130570BF90AF909F908F907F906F900895505848
S1130580BB27AA270E94D7020C94B6030E94A80393
S113059038F00E94AF0320F039F49F3F19F426F499
S11305A00C94A5030EF4E095E7FB0C949F03E92F4C
S11305B00E94C70358F3BA176207730784079507A5
S11305C020F079F4A6F50C94E9030EF4E0950B2ED3
S11305D0BA2FA02D0B01B90190010C01CA01A00191
S11305E01124FF27591B99F0593F50F4503E68F1EC
S11305F01A16F040A22F232F342F4427585FF3CF2D
S1130600469537952795A795F0405395C9F77EF4FD
S11306101F16BA0B620B730B840BBAF09150A1F046
S1130620FF0FBB1F661F771F881FC2F70EC0BA0FCC
S1130630621F731F841F48F4879577956795B79554
S1130640F7959E3F08F0B0CF9395880F08F099274F
S1130650EE0F9795879508950E9433036894B1111E
S11306600C94EA0308950E94CF0388F09F5798F0F2
S1130670B92F9927B751B0F0E1F0660F771F881FA3
S1130680991F1AF0BA95C9F714C0B13091F00E94BD
S1130690E903B1E008950C94E903672F782F8827C4
S11306A0B85F39F0B93FCCF3869577956795B395E4
S11306B0D9F73EF490958095709561957F4F8F4F53
S11306C09F4F0895E89409C097FB3EF49095809558
S11306D0709561957F4F8F4F9F4F9923A9F0F92F04
S11306E096E9BB279395F695879577956795B79582
S11306F0F111F8CFFAF4BB0F11F460FF1BC06F5F68
S11307007F4F8F4F9F4F16C0882311F096E911C079
S1130710772321F09EE8872F762F05C0662371F09A
S113072096E8862F70E060E02AF09A95660F771FAE
S1130730881FDAF7880F9695879597F9089597F9A2
S11307409F6780E870E060E008959FEF80EC089573
S113075000240A941616170618060906089500249C
S11307600A9412161306140605060895092E039416
S1130770000C11F4882352F0BB0F40F4BF2B11F48A
S113078060FF04C06F5F7F4F8F4F9F4F089557FDE9
S11307909058440F551F59F05F3F71F04795880FEB
S11307A097FB991F61F09F3F79F087950895121682
S11307B013061406551FF2CF4695F1DF08C016162E
S11307C017061806991FF1CF8695710561050894DF
S11307D00895E894BB2766277727CB0197F90895F6
S11307E0FB01DC018D91019080190110D9F3990B63
S11307F008950F931F93CF93DF93FB01238121FD72
S113080003C08FEF9FEF28C022FF16C04681578197
S1130810248135814217530744F4A081B1819D019D
S11308202F5F3F4F318320838C93268137812F5F45
S11308303F4F3783268310C0EB01092F182F008404
S1130840F185E02D0995892BE1F68E819F81019632
S11308509F838E83812F902FDF91CF911F910F91D2
S11308600895A0E0B0E0E7E3F4E00C946B045B01CE
S11308704A017901D90113962C9121FF1DC0C0E0D2
S1130880D0E0C815D905D9F08C016C01CA0CDB1C69
S1130890C8010C151D0571F00F5F1F4FD701189685
S11308A0ED91FC911997B701DC018C910995892B85
S11308B079F305C02196E5CF80E090E001C0CE0138
S11308C0CDB7DEB7ECE00C9487042F923F924F92A1
S11308D05F926F927F928F929F92AF92BF92CF92CC
S11308E0DF92EF92FF920F931F93CF93DF93CDB7D5
S11308F0DEB7CA1BDB0B0FB6F894DEBF0FBECDBF4D
S113090009942A88398848885F846E847D848C841D
S11309109B84AA84B984C884DF80EE80FD800C8126
S11309201B81AA81B981CE0FD11D0FB6F894DEBF09
S10F09300FBECDBFED010895F894FFCF79
S113093C00000003000000008A01AB01000002006B
S113094C7965730048656C6C6F200A00576F756C81
S113095C6420796F75206C696B6520746F206368F3
S113096C616E6765206D6F6465733F200A002A729F
S109097C696E672A0A00FF
S9030000FC
