S019000050726163746963654C6162546573745F342E737265639E
S11300000C9434000C9451000C9451000C94900105
S11300100C9451000C9451000C9451000C94510018
S11300200C9451000C9451000C9451000C946B01ED
S11300300C9451000C9451000C944D010C945100FB
S11300400C9451000C9451000C9451000C945100E8
S11300500C9451000C9451000C9451000C945100D8
S11300600C9451000C94510011241FBECFEFD8E022
S1130070DEBFCDBF11E0A0E0B1E0ECEDFCE002C0DA
S113008005900D92A232B107D9F721E0A2E2B1E0C6
S113009001C01D92AC33B207E1F70E9482030C94B5
S11300A06C060C94000087B18F6087B987B18063B8
S11300B087B9089598B182958F70907F892B88B9FC
S11300C04498459A8FE99FE00197F1F700C000003A
S11300D045988FE99FE00197F1F700C0000008956B
S11300E098B1282F22952F70907F922B98B944981D
S11300F0459AEFE9FFE03197F1F700C00000459819
S1130100EFE3FFE13197F1F700C0000098B18F7081
S1130110907F892B88B94498459A8FE99FE001978D
S1130120F1F700C000004598EFE3FFE13197F1F7E4
S113013000C00000089598B1282F22952F70907F59
S1130140922B98B9449A459AEFE9FFE03197F1F779
S113015000C000004598EFE9FFE03197F1F700C0D7
S1130160000098B18F70907F892B88B9449A459A82
S11301708FE99FE00197F1F700C000004598EFE395
S1130180FFE13197F1F700C0000008950E94530089
S113019080E30E945A008FE090E40197F1F700C0D9
S11301A0000080E30E945A008FE891E00197F1F784
S11301B000C0000080E30E945A0080E20E945A00BE
S11301C088E20E94700088E00E94700081E00E9432
S11301D0700086E00E9470008FE00E9470009FEF24
S11301E02BED85E0915020408040E1F700C00000F5
S11301F0089581E00E94700008950F931F93CF9398
S1130200DF93009781F0662371F0EC016150062FB3
S113021010E00F5F1F4F080F191F89910E949B0068
S1130220C017D107D1F7DF91CF911F910F91089596
S1130230613009F4805C80680E94700008950E9417
S1130240C6008AB183608AB921985398E8E6F0E041
S1130250808181608083EBE6F0E080818268808326
S113026084B5826084BD89EF87BD82E080936E008F
S113027085B5836085BDE1E8F0E080818860808396
S113028089EF90E09093890080938800EFE6F0E096
S1130290808182608083789408951F920F920FB6B4
S11302A00F9211248F939F938091040190910501E3
S11302B0181619064CF480910401909105010197D8
S11302C090930501809304019F918F910F900FBE2D
S11302D00F901F9018951F920F920FB60F92112432
S11302E08F939F93AF93BF9380913801909139017D
S11302F0A0913A01B0913B010196A11DB11D8093DB
S1130300380190933901A0933A01B0933B01BF9116
S1130310AF919F918F910F900FBE0F901F901895E2
S11303201F920F920FB60F9211244F935F936F9306
S11303307F938F939F93AF93BF93EF93FF93E8E6DD
S1130340F0E080818E7F808381E090E090933301A0
S1130350809332018091260190912701A091280178
S1130360B09129018093000190930101A0930201AF
S1130370B09303018091380190913901A0913A0121
S1130380B0913B0140912E0150912F0160913001B9
S113039070913101841B950BA60BB70B809326013A
S11303A090932701A0932801B0932901409126013D
S11303B050912701609128017091290180910001D9
S11303C090910101A0910201B091030148175907CE
S11303D06A077B0780F48091260190912701A09100
S11303E02801B09129018093220190932301A093C5
S11303F02401B09325018091380190913901A09195
S11304003A01B0913B0180932A0190932B01A09370
S11304102C01B0932D01FF91EF91BF91AF919F916A
S11304208F917F916F915F914F910F900FBE0F90BD
S11304301F901895E1E8F0E080818360808308953F
S1130440E1E8F0E080818C7F808308950F931F930F
S1130450CF93DF93CDB7DEB72A970FB6F894DEBFFC
S11304600FBECDBF61E080E00E941801809126019B
S113047090912701A0912801B0912901BF93AF93D6
S11304809F938F938DE091E09F938F938E010F5FE5
S11304901F4F1F930F930E949403F80101900020B3
S11304A0E9F73197BF01601B710BC8010E94FD0081
S11304B00FB6F894DEBF0FBECDBF2A960FB6F894E0
S11304C0DEBF0FBECDBFDF91CF911F910F91089575
S11304D00F931F93CF93DF93CDB7DEB766970FB615
S11304E0F894DEBF0FBECDBF60E080E00E9418012B
S11304F080912A0190912B01A0912C01B0912D01A2
S1130500BF93AF939F938F9387E091E09F938F93D3
S11305108E010F5F1F4F1F930F930E949403F801E6
S113052001900020E9F73197BF01601B710BC801EE
S11305300E94FD0061E080E00E9418018091220188
S113054090912301A0912401B0912501BF93AF9311
S11305509F938F9384E191E09F938F93065F1F4F46
S11305601F930F930E949403F80101900020E9F770
S11305703197BF01601B710BC8010E94FD000FB6CB
S1130580F894DEBF0FBECDBF66960FB6F894DEBFFB
S11305900FBECDBFDF91CF911F910F9108950F939F
S11305A01F93CF93DF93CDB7DEB764970FB6F8945C
S11305B0DEBF0FBECDBF0E94F90060E080E00E9464
S11305C018018091380190913901A0913A01B091BC
S11305D03B01BF93AF939F938F938DE091E09F93E3
S11305E08F938E010F5F1F4F1F930F930E949403ED
S11305F0F80101900020E9F73197BF01601B710BEE
S1130600C8010E94FD001092380110923901109225
S11306103A0110923B010FB6F894DEBF0FBECDBF76
S113062064960FB6F894DEBF0FBECDBFDF91CF91B5
S11306301F910F9108958091380190913901A091F3
S11306403A01B0913B018093340190933501A0931A
S11306503601B09337010E94CF02089580910601BC
S1130660813019F08330E1F043C0199941C00E94F0
S1130670F900109238011092390110923A01109247
S11306803B01109234011092350110923601109200
S113069037010E941A02589A83E08093060128C009
S11306A019990EC00E94F9000E9420020E941B03A7
S11306B08BB18C7F8BB90E94680281E08093060124
S11306C01F9916C09BB182E089278BB980913801AC
S11306D090913901A0913A01B0913B0180932E0190
S11306E090932F01A0933001B09331010E94260210
S11306F01092330110923201E8E6F0E080818160CB
S1130700808308950E941F01809104019091050146
S113071018161906CCF38091320190913301892B7C
S113072099F30E942E03F0CFAEE0B0E0EAE9F3E0E3
S11307300C9443060D891E8986E08C831A830983F1
S11307408FEF9FE79E838D83AE01475E5F4F6F8976
S1130750788DCE0101960E94B7032F813885F80168
S1130760E20FF31F10822E96E4E00C945F06ACE0D7
S1130770B0E0EDEBF3E00C9435067C016B018A01EB
S1130780FC0117821682838181FFBDC1CE010196CF
S11307904C01F7019381F60193FD859193FF8191BB
S11307A06F01882309F4ABC1853239F493FD859137
S11307B093FF81916F01853229F4B70190E00E9483
S11307C09F05E7CF512C312C20E02032A0F48B324E
S11307D069F030F4803259F0833269F420612CC01E
S11307E08D3239F0803339F4216026C022602460D0
S11307F023C0286021C027FD27C030ED380F3A30D0
S113080078F426FF06C0FAE05F9E300D1124532EC3
S113081013C08AE0389E300D1124332E20620CC0A0
S11308208E3221F426FD6BC1206406C08C3611F48F
S1130830206802C0883641F4F60193FD859193FF48
S113084081916F018111C1CF982F9F7D9554933071
S113085028F40C5F1F4FFFE3F9830DC0833631F09A
S1130860833771F0833509F05BC022C0F8018081C1
S113087089830E5F1F4F44244394512C540115C0A7
S11308803801F2E06F0E711CF801A080B18026FFE0
S113089003C0652D70E002C06FEF7FEFC5012C87A8
S11308A00E9494052C0183012C852F77222E17C0DA
S11308B03801F2E06F0E711CF801A080B18026FFB0
S11308C003C0652D70E002C06FEF7FEFC5012C8778
S11308D00E9489052C012C852068222E830123FC8B
S11308E01BC0832D90E048165906B0F4B70180E28E
S11308F090E00E949F053A94F4CFF50127FC85917E
S113090027FE81915F01B70190E00E949F0531109D
S11309103A94F1E04F1A51084114510471F7E5C0BB
S1130920843611F0893639F5F80127FF07C0608154
S11309307181828193810C5F1F4F08C06081718136
S1130940072E000C880B990B0E5F1F4F2F76722E0B
S113095097FF09C090958095709561957F4F8F4F53
S11309609F4F2068722E2AE030E0A4010E94D70530
S1130970A82EA81844C0853729F42F7EB22E2AE069
S113098030E025C0F22FF97FBF2E8F36C1F018F466
S1130990883579F0B4C0803719F0883721F0AFC0BA
S11309A02F2F2061B22EB4FE0DC08B2D8460B82E83
S11309B009C024FF0AC09F2F9660B92E06C028E004
S11309C030E005C020E130E002C020E132E0F8016F
S11309D0B7FE07C060817181828193810C5F1F4FD4
S11309E006C06081718180E090E00E5F1F4FA4011A
S11309F00E94D705A82EA818FB2DFF777F2E76FE20
S1130A000BC0372D3E7FA51450F474FE0AC072FC4F
S1130A1008C0372D3E7E05C0BA2C372D03C0BA2C32
S1130A2001C0B52C34FF0DC0FE01EA0DF11D80811B
S1130A30803311F4397E09C032FF06C0B394B394F5
S1130A4004C0832F867809F0B39433FD13C030FFBC
S1130A5006C05A2CB31418F4530C5B18B32CB314FB
S1130A6068F4B70180E290E03C870E949F05B3944C
S1130A703C85F5CFB31410F43B1801C0312C34FF7E
S1130A8012C0B70180E390E03C870E949F053C853B
S1130A9032FF17C031FD03C088E790E002C088E54B
S1130AA090E0B7010CC0832F867859F031FF02C063
S1130AB08BE201C080E237FD8DE2B70190E00E9435
S1130AC09F05A51438F4B70180E390E00E949F05C8
S1130AD05A94F7CFAA94F401EA0DF11D8081B7016D
S1130AE090E00E949F05A110F5CF332009F451CE68
S1130AF0B70180E290E00E949F053A94F6CFF70197
S1130B008681978102C08FEF9FEF2C96E2E10C94CF
S1130B105106FC010590615070400110D8F7809592
S1130B2090958E0F9F1F0895FC01615070400190B5
S1130B300110D8F7809590958E0F9F1F08950F93FD
S1130B401F93CF93DF93FB01238121FD03C08FEF1C
S1130B509FEF28C022FF16C046815781248135812A
S1130B604217530744F4A081B1819D012F5F3F4F89
S1130B70318320838C93268137812F5F3F4F3783C6
S1130B80268310C0EB01092F182F0084F185E02D76
S1130B900995892BE1F68E819F8101969F838E832F
S1130BA0812F902FDF91CF911F910F910895FA011A
S1130BB0AA27283051F1203181F1E8946F936E7F98
S1130BC06E5F7F4F8F4F9F4FAF4FB1E03ED0B4E089
S1130BD03CD0670F781F891F9A1FA11D680F791FCA
S1130BE08A1F911DA11D6A0F711D811D911DA11DDB
S1130BF020D009F468943F912AE0269F11243019EB
S1130C00305D3193DEF6CF010895462F4770405D85
S1130C104193B3E00FD0C9F7F6CF462F4F70405D34
S1130C204A3318F0495D31FD4052419302D0A9F78F
S1130C30EACFB4E0A6959795879577956795BA9589
S1130C40C9F700976105710508959B01AC010A2E4F
S1130C5006945795479537952795BA95C9F7620F26
S1130C60731F841F951FA01D08952F923F924F92CA
S1130C705F926F927F928F929F92AF92BF92CF9228
S1130C80DF92EF92FF920F931F93CF93DF93CDB731
S1130C90DEB7CA1BDB0B0FB6F894DEBF0FBECDBFA9
S1130CA009942A88398848885F846E847D848C847A
S1130CB09B84AA84B984C884DF80EE80FD800C8183
S1130CC01B81AA81B981CE0FD11D0FB6F894DEBF66
S10F0CD00FBECDBFED010895F894FFCFD6
S1130CDC00CA9A3B10000154696D653A20256C7565
S1130CEC206D7300426573743A20256C75206D7306
S1050CFC0000F2
S9030000FC
