:100000000C9434000C9451000C9451000C94510049
:100010000C9451000C9451000C9451000C9451001C
:100020000C9451000C9451000C9451000C9451000C
:100030000C9451000C9451000C9451000C945100FC
:100040000C9451000C9451000C9451000C945100EC
:100050000C9451000C9451000C9451000C945100DC
:100060000C9451000C94510011241FBECFEFD8E026
:10007000DEBFCDBF11E0A0E0B1E0EEE8F3E002C0EA
:1000800005900D92A430B107D9F721E0A4E0B1E0CA
:1000900001C01D92AA30B207E1F70E9451010C94F1
:1000A000C5010C94000087B18F6087B987B1806368
:1000B00087B9089598B182958F70907F892B88B900
:1000C0004498459A8FE99FE00197F1F700C000003E
:1000D00045988FE99FE00197F1F700C0000008956F
:1000E00098B1282F22952F70907F922B98B9449821
:1000F000459AEFE9FFE03197F1F700C0000045981D
:10010000EFE3FFE13197F1F700C0000098B18F7085
:10011000907F892B88B94498459A8FE99FE0019791
:10012000F1F700C000004598EFE3FFE13197F1F7E8
:1001300000C00000089598B1282F22952F70907F5D
:10014000922B98B9449A459AEFE9FFE03197F1F77D
:1001500000C000004598EFE9FFE03197F1F700C0DB
:10016000000098B18F70907F892B88B9449A459A86
:100170008FE99FE00197F1F700C000004598EFE399
:10018000FFE13197F1F700C0000008950E9453008D
:1001900080E30E945A008FE090E40197F1F700C0DD
:1001A000000080E30E945A008FE891E00197F1F788
:1001B00000C0000080E30E945A0080E20E945A00C2
:1001C00088E20E94700088E00E94700081E00E9436
:1001D000700086E00E9470008FE00E9470009FEF28
:1001E0002BED85E0915020408040E1F700C00000F9
:1001F000089581E00E94700008958091020182308C
:1002000029F0833061F0813081F527C01A9903C04D
:1002100083E08093020182E08093030108951A999C
:1002200011C080910301823069F481E08093020162
:1002300081E090E0909309018093080182E080932F
:100240000301089582E08093020110920901109247
:10025000080183E08093030108951A9B03C083E0A3
:100260008093020181E0809303010895FF920F9330
:100270001F93CF93DF93F82E8B010E94F900101685
:1002800011064CF4C0E0D0E08F2D0E949B00219617
:10029000C017D107C9F7DF91CF911F910F91FF9040
:1002A00008950E94C600EE24EA94FE2C00E110E0BE
:1002B000C1E0D0E00E94FD008FE39CE90197F1F7D7
:1002C00000C00000809102018130A1F780910301FC
:1002D000823009F053C08091060190910701419747
:1002E0000CF04CC08AE20E949B0080910601909124
:1002F000070101969093070180930601409741F40E
:100300001093010100930001D0930501C0930401F3
:100310006091000170910101772364F280910201E4
:10032000813041F68091040190910501019711F609
:1003300080910301823009F0BDCF8AE20E9436012C
:100340008091000190910101892B71F40E94F900C4
:1003500010920501109204011092070110920601FB
:10036000F0920101E0920001809100019091010161
:10037000019790930101809300019CCF609100014F
:0E03800070910101772374F695CFF894FFCFAA
:04038E00FFFF020269
:00000001FF
