:100000000C943E000C945B000C945B000C945B0021
:100010000C945B000C945B000C945B000C945B00F4
:100020000C945B000C945B000C945B000C949D01A1
:100030000C945B000C945B000C945B000C945B00D4
:100040000C945B000C945B000C945B000C945B00C4
:100050000C945B000C945B000C945B000C945B00B4
:100060000C945B000C945B00EA00FF00040111019A
:1000700030014401490156015B01200111241FBEDA
:10008000CFEFD8E0DEBFCDBF11E0A0E0B1E0E2E904
:10009000F4E002C005900D92A430B107D9F721E039
:1000A000A4E0B1E001C01D92A437B207E1F70E94BD
:1000B0001F020C9447020C94000087B18F6087B92F
:1000C00087B1806387B9089598B182958F70907FCA
:1000D000892B88B94498459A8FE99FE00197F1F7F9
:1000E00000C0000045988FE99FE00197F1F700C03C
:1000F0000000089598B1282F22952F70907F922BA1
:1001000098B94498459AEFE9FFE03197F1F700C0BC
:1001100000004598EFE3FFE13197F1F700C00000E0
:1001200098B18F70907F892B88B94498459A8FE950
:100130009FE00197F1F700C000004598EFE3FFE171
:100140003197F1F700C0000008950E945D0080E340
:100150000E9464008FE090E40197F1F700C0000076
:1001600080E30E9464008FE891E00197F1F700C0FE
:10017000000080E30E94640080E20E94640088E244
:100180000E947A0088E00E947A0081E00E947A0052
:1001900086E00E947A008FE00E947A009FEF2BEDAC
:1001A00085E0915020408040E1F700C000000895B4
:1001B0008CE00E947A000895E09102018E2F90E079
:1001C000FC013197EA30F10508F080C0EC5CFF4F8C
:1001D0000C94410280910C0190910D01019709F05E
:1001E00075C088B190910F0192959F70807F892B87
:1001F00088B94498459A82E0809302010895459811
:1002000083E080930201089588B190910F019F705F
:10021000807F892B88B94498459A84E080930201B5
:10022000089545988091040190910501019721F46A
:100230008AE080930201089585E080930201089589
:1002400010920B0110920A0181E08093020110923A
:100250000D0110920C0110920501109204010895F5
:1002600080910C0190910D01892B81F188B19091C1
:100270000E0192959F70807F892B88B9449A459A88
:1002800086E0809302010895459887E080930201FB
:10029000089588B190910E019F70807F892B88B955
:1002A000449A459A88E0809302010895459889E030
:1002B00080930201089510920B0110920A0110928E
:1002C0000D0110920C0181E08093020108952091AC
:1002D0000A0130910B01232BD1F721E030E030935C
:1002E0000B0120930A016115710521F06130710540
:1002F00009F4805C21E030E030930D0120930C0183
:100300008068EEE0F1E081834083089520910A0146
:1003100030910B01232BD1F721E030E030930B011A
:1003200020930A01309305012093040180930F016B
:1003300030930D0120930C0108951F920F920FB678
:100340000F9211242F933F934F935F936F937F935B
:100350008F939F93AF93BF93EF93FF93809100018F
:1003600090910101181619064CF4809100019091AA
:100370000101019790930101809300010E94DC002C
:10038000FF91EF91BF91AF919F918F917F916F916D
:100390005F914F913F912F910F900FBE0F901F9043
:1003A00018958FEC97E09093890080938800EFE692
:1003B000F0E0808182608083E1E8F0E08081886005
:1003C00080838081826080830895259A0E94A500A1
:1003D0000E94D80081E090E00E9486010E94D10135
:1003E00008958091080190910901892B11F441E34E
:1003F00001C040E360E070E080E090E00E946701AF
:100400004091080150910901405D61E070E080E099
:1004100090E00E946701809106019091070101968A
:100420009093070180930601809108019091090142
:1004300021E08227909309018093080108950E948A
:10044000E501789480E284B910E2C8EED3E08091AF
:1004500000019091010118161906CCF38091060154
:1004600090910701409719F481E00E94860185B1BF
:10047000812785B90E94F101D0930101C093000149
:10048000E6CFEE0FFF1F0590F491E02D0994F8944C
:02049000FFCF9C
:04049200E80301007A
:00000001FF
