:100000000C94B1000C94CE000C94CE000C94CE0055
:100010000C94CE000C94CE000C94CE000C94CE0028
:100020000C94CE000C94CE000C94CE000C94CE0018
:100030000C94CE000C94CE000C94CE000C94CE0008
:100040000C94CE000C94CE000C94CE000C94CE00F8
:100050000C94CE000C94CE000C94CE000C94CE00E8
:100060000C94CE000C94CE0000407A10F35A00A0FD
:10007000724E18090010A5D4E80000E87648170071
:1000800000E40B54020000CA9A3B000000E1F505B1
:10009000000080969800000040420F000000A086FB
:1000A00001000000102700000000E803000000002D
:1000B0006400000000000A000000000001000000D1
:1000C00000002C76D888DC674F0823DFC1DFAE59EB
:1000D000E1B1B796E5E3E453C63AE651997696E87E
:1000E000E6C28426EB898C9B62ED407C6FFCEFBC02
:1000F0009C9F40F2BAA56FA5F490055A2AF75C932D
:100100006B6CF9676DC11BFCE0E40D47FEF520E662
:10011000B500D0ED902E0300943577050080841E45
:10012000080000204E0A000000C80C333333330FA0
:10013000986E12831141EF8D2114893BE65516CF3D
:10014000FEE6DB18D1844B381BF77C1D901DA4BB49
:10015000E424203284725E228100C9F124ECA1E5FE
:100160003D2711241FBECFEFD8E0DEBFCDBF11E089
:10017000A0E0B1E0ECEEFCE002C005900D92A231EF
:10018000B107D9F721E0A2E1B1E001C01D92A73289
:10019000B207E1F70E9418020C9474060C94000058
:1001A00087B18F6087B987B1806387B9089598B1A7
:1001B00082958F70907F892B88B94498459A8FE9F2
:1001C0009FE00197F1F700C0000045988FE99FE09C
:1001D0000197F1F700C00000089598B1282F2295EB
:1001E0002F70907F922B98B94498459AEFE9FFE0E1
:1001F0003197F1F700C000004598EFE3FFE1319738
:10020000F1F700C0000098B18F70907F892B88B9FA
:100210004498459A8FE99FE00197F1F700C00000EC
:100220004598EFE3FFE13197F1F700C00000089532
:1002300098B1282F22952F70907F922B98B9449ACD
:10024000459AEFE9FFE03197F1F700C000004598CB
:10025000EFE9FFE03197F1F700C0000098B18F702F
:10026000907F892B88B9449A459A8FE99FE001973E
:10027000F1F700C000004598EFE3FFE13197F1F797
:1002800000C0000008950E94D00080E30E94D700C3
:100290008FE090E40197F1F700C0000080E30E9436
:1002A000D7008FE891E00197F1F700C0000080E3EC
:1002B0000E94D70080E20E94D70088E20E94ED00F1
:1002C00088E00E94ED0081E00E94ED0086E00E943F
:1002D000ED008FE00E94ED009FEF2BED85E0915047
:1002E00020408040E1F700C00000089581E00E94B6
:1002F000ED0008950F931F93CF93DF93009781F044
:10030000662371F0EC016150062F10E00F5F1F4F64
:10031000080F191F89910E941801C017D107D1F742
:10032000DF91CF911F910F910895613009F4805CA6
:1003300080680E94ED0008958CE00E94ED00089511
:10034000EF92FF920F931F93CF93DF938C01862F31
:10035000642F0E9495017801C0E0D0E006C0F7014B
:1003600081917F010E9418012196F80101900020DF
:10037000E9F73197E01BF10BCE17DF0780F3DF9130
:10038000CF911F910F91FF90EF900895EAE7F0E071
:10039000808180648083808186FDFDCF0895289AC6
:1003A0002A9808952A9A28980895CF93DF93C82F02
:1003B000D92F0E94CF01DEBD0DB407FEFDCFCEBD0B
:1003C0000DB407FEFDCF0E94D201DF91CF910895B9
:1003D0000E9443010E949C010E94760140E050E08F
:1003E00060E070E080E091E00E94A00141E050E018
:1003F00060E070E089E091E00E94A001ECE7F0E0AD
:10040000808186608083EAE7F0E080818760808376
:1004100080818068808384B18D6284B984B18C626C
:1004200084B98CB583658CBD209A289A78940895F8
:10043000CF93DF9300D000D0CDB7DEB70E94E801A4
:100440000F2EF8E7AF2EB12CF02D0F2EF9E7CF2E9F
:10045000D12CF02D0E94C601F501808190E090938F
:10046000260180932501F60120818091250190913C
:100470002601922B909326018093250160912501FE
:100480007091260180E090E00E94F30220E030EFBE
:100490004FE755E40E94590320E030E040E85AE37A
:1004A0000E9459030E94C4027093130160931201C9
:1004B000609125017091260180E090E00E94F30296
:1004C00020E030E040EA50E40E94590320E030E0B0
:1004D00040E85AE30E94590369837A838B839C83A3
:1004E0008091120190911301906790931301809372
:1004F000120180911201909113010E94D50169812E
:100500007A818B819C8104E111E023E044E00E9428
:10051000EE0360E088E00E949501F8010190002060
:10052000E9F73197BF0164517140C8010E947A0117
:1005300060911201709113017F7080E090E00E9441
:10054000F30220E030E040E85AE30E94590323E040
:1005500044E00E94EE0361E088E00E949501F8010A
:1005600001900020E9F73197BF0164517140C80143
:100570000E947A01FFEF21EE84E0F150204080409C
:10058000E1F700C0000066CF0E94380388F09F5753
:1005900098F0B92F9927B751B0F0E1F0660F771FA7
:1005A000881F991F1AF0BA95C9F714C0B13091F09D
:1005B0000E945203B1E008950C945203672F782FE4
:1005C0008827B85F39F0B93FCCF386957795679562
:1005D000B395D9F73EF490958095709561957F4FCE
:1005E0008F4F9F4F0895E89409C097FB3EF4909574
:1005F0008095709561957F4F8F4F9F4F9923A9F0FC
:10060000F92F96E9BB279395F6958795779567958A
:10061000B795F111F8CFFAF4BB0F11F460FF1BC0CE
:100620006F5F7F4F8F4F9F4F16C0882311F096E961
:1006300011C0772321F09EE8872F762F05C066230F
:1006400071F096E8862F70E060E02AF09A95660FC8
:10065000771F881FDAF7880F9695879597F9089581
:1006600057FD9058440F551F59F05F3F71F0479563
:10067000880F97FB991F61F09F3F79F08795089548
:10068000121613061406551FF2CF4695F1DF08C067
:10069000161617061806991FF1CF86957105610584
:1006A00008940895E894BB2766277727CB0197F92C
:1006B00008950E946C030C94DD030E94CF0338F070
:1006C0000E94D60320F0952311F00C94C6030C94DD
:1006D000CC0311240C9453030E94300370F3959FB4
:1006E000C1F3950F50E0551F629FF001729FBB2729
:1006F000F00DB11D639FAA27F00DB11DAA1F649FC5
:100700006627B00DA11D661F829F2227B00DA11D77
:10071000621F739FB00DA11D621F839FA00D611DFD
:10072000221F749F3327A00D611D231F849F600D1E
:10073000211D822F762F6A2F11249F5750409AF047
:10074000F1F088234AF0EE0FFF1FBB1F661F771FD3
:10075000881F91505040A9F79E3F510580F00C949E
:10076000C6030C9453035F3FE4F3983ED4F386959D
:1007700077956795B795F795E7959F5FC1F7FE2B3E
:10078000880F911D9695879597F9089597F99F671A
:1007900080E870E060E008959FEF80EC0895002409
:1007A0000A941616170618060906089500240A94D6
:1007B00012161306140605060895092E0394000C5C
:1007C00011F4882352F0BB0F40F4BF2B11F460FFEB
:1007D00004C06F5F7F4F8F4F9F4F0895EF920F932D
:1007E0001F93CF93DF93E80147FD02C034E001C0BF
:1007F00034E1E42F440FFF0BF7FF03C0F195E195BF
:10080000F109E32E022F2E2FAE010E940E04CE011D
:10081000DF91CF911F910F91EF9008954F925F92CA
:100820006F927F929F92AF92BF92CF92DF92EF92A0
:10083000FF920F931F93CF93DF93CDB7DEB7299726
:100840000FB6F894DEBF0FBECDBF6A01122FB02ED7
:100850002BE3201720F0FF24F394F00E02C0BCE33A
:10086000FB2E0F2D27E0AE014F5F5F4F0E949C05CE
:10087000AC018981982F9970913031F0E1FC06C06C
:10088000E0FE06C090E205C09DE203C09BE201C00D
:1008900090E0EE2DE07183FF3CC0911102C083E037
:1008A00001C084E0811718F4212F281B01C020E02B
:1008B000E1110BC0F601822F30E2882319F0319349
:1008C0008150FBCFC20ED11C20E0992329F0D60124
:1008D0009C93F60131966F01C6010396E2FE0AC0B1
:1008E0003EE4D6013C9341E411964C931197129645
:1008F0003C9306C03EE6F601308341E641833283F5
:10090000FC01322F40E2332309F442C041933150BD
:10091000FACF82FF44C0911102C083E001C084E09D
:10092000811718F4212F281B01C020E0E1110BC012
:10093000F601822F30E2882319F031938150FBCFEA
:10094000C20ED11C20E0992329F0D6019C93F60118
:1009500031966F01C6010396E2FE0BC039E4D60161
:100960003C933EE411963C93119736E412963C93E7
:1009700007C039E6F60130833EE6318336E632833E
:10098000FC01322F40E2332319F041933150FBCF69
:10099000FC01E20FF11D10828EEF9FEFB7C0F1E076
:1009A000911101C0F0E06F2F70E01416150624F4C9
:1009B0009A012F5F3F4F02C021E030E0260F371F22
:1009C000BB2029F06B2D70E06F5F7F4F02C060E0AD
:1009D00070E0260F371F612F70E0261737071CF4D1
:1009E000121B212F01C020E03E2D387159F4D60191
:1009F000322F60E2332319F06D933150FBCFC20EDA
:100A0000D11C20E0FF2331F0D6019C93B6016F5F2B
:100A10007F4F6B01E1110BC0F601922F30E3992358
:100A200019F031939150FBCFC20ED11C20E09F2DC5
:100A3000940F3A81782F7071A72E84FF03C0313351
:100A400009F49150191624F4993018F098E001C077
:100A500091E0E42F852F57FF02C0E0E080E06E2F89
:100A6000782FE0E0F0E0AEE29A2E3A01691A7108C0
:100A70002A01461A570A0B2D10E01195019511090C
:100A80006F3F8FEF780729F4D6019C92C60101963B
:100A90006C014617570784F0661677066CF47F01E1
:100AA000E40CF51CA1E0B0E0AC0FBD1FEA0EFB1E8C
:100AB000D7011196BC9002C090E3B92E6150710924
:100AC0003196C60101967C016017710724F0D601AA
:100AD000BC926C01D5CF6417750741F4363320F40E
:100AE000353321F4A11002C081E3B82EF601B082A3
:100AF000F701822F90E2882319F091938150FBCF68
:100B0000F701E20FF11D108280E090E029960FB608
:100B1000F894DEBF0FBECDBFDF91CF911F910F9133
:100B2000FF90EF90DF90CF90BF90AF909F907F901D
:100B30006F905F904F900895283008F027E033279A
:100B4000DA01990F311D87FD9160009661057105ED
:100B500039F432602E5F3D9330E32A95E1F7089532
:100B60009F3F30F080387105610509F03C5F3C5FC4
:100B70003D93913008F08068911DDF93CF931F93D0
:100B80000F93FF92EF92192F987F9695E92F9695E4
:100B90009695E90FFF27EE53FF4F99273327EE2451
:100BA000FF24A701E70105900894079428F4360F65
:100BB000E71EF81E491F511D660F771F881F991FDA
:100BC0000694A1F70590079428F4E70EF81E491F34
:100BD000561FC11D770F881F991F661F0694A1F726
:100BE0000590079428F4F80E491F561FC71FD11D02
:100BF000880F991F661F771F0694A1F70590079429
:100C000020F4490F561FC71FD81F990F661F771F63
:100C1000881F0694A9F784911095177041F0D69516
:100C2000C79557954795F794E7941A95C1F7E8E665
:100C3000F0E0689415901591359165919591059026
:100C40007FE27395E118F10A430B560BC90BD009EB
:100C5000C0F7E10CF11E431F561FC91FD01D7EF4C3
:100C6000703311F48A95E6CFE894015030F0080F04
:100C70000AF40027021708F4202F2395022F7A3355
:100C800028F079E37D932A95E9F710C07D932A95A2
:100C900089F6069497956795379517951794E118F7
:100CA000F10A430B560BC90BD00998F023957E919E
:100CB00073957A3308F070E37C932013B8F77E9134
:100CC00070617D9330F0839571E37D9370E32A9595
:100CD000E1F71124EF90FF900F911F91CF91DF91D9
:0C0CE000992787FD90950895F894FFCFA8
:100CEC004D61737465723A2000536C6176653A20DD
:020CFC002000D6
:00000001FF
