:100000000C94B1000C94CE000C94CE000C94CE0055
:100010000C94CE000C94CE000C94E2010C94CE0013
:100020000C94CE000C94CE000C94CE000C94CE0018
:100030000C94CE000C94CE000C94CE000C94CE0008
:100040000C94CE000C94CE000C94CE000C94CE00F8
:100050000C94CE000C94CE000C94CE000C94CE00E8
:100060000C94CE000C94CE0000407A10F35A00A0FD
:10007000724E18090010A5D4E80000E87648170071
:1000800000E40B54020000CA9A3B000000E1F505B1
:10009000000080969800000040420F000000A086FB
:1000A00001000000102700000000E803000000002D
:1000B0006400000000000A000000000001000000D1
:1000C00000002C76D888DC674F0823DFC1DFAE59EB
:1000D000E1B1B796E5E3E453C63AE651997696E87E
:1000E000E6C28426EB898C9B62ED407C6FFCEFBC02
:1000F0009C9F40F2BAA56FA5F490055A2AF75C932D
:100100006B6CF9676DC11BFCE0E40D47FEF520E662
:10011000B500D0ED902E0300943577050080841E45
:10012000080000204E0A000000C80C333333330FA0
:10013000986E12831141EF8D2114893BE65516CF3D
:10014000FEE6DB18D1844B381BF77C1D901DA4BB49
:10015000E424203284725E228100C9F124ECA1E5FE
:100160003D2711241FBECFEFD8E0DEBFCDBF11E089
:10017000A0E0B1E0ECE5F6E102C005900D92AC33F1
:10018000B107D9F721E0ACE3B1E001C01D92AF3A6D
:10019000B207E1F70E945A020C942C0B0C94000059
:1001A00087B18F6087B987B1806387B9089598B1A7
:1001B00082958F70907F892B88B94498459A8FE9F2
:1001C0009FE00197F1F700C0000045988FE99FE09C
:1001D0000197F1F700C00000089598B1282F2295EB
:1001E0002F70907F922B98B94498459AEFE9FFE0E1
:1001F0003197F1F700C000004598EFE3FFE1319738
:10020000F1F700C0000098B18F70907F892B88B9FA
:100210004498459A8FE99FE00197F1F700C00000EC
:100220004598EFE3FFE13197F1F700C00000089532
:1002300098B1282F22952F70907F922B98B9449ACD
:10024000459AEFE9FFE03197F1F700C000004598CB
:10025000EFE9FFE03197F1F700C0000098B18F702F
:10026000907F892B88B9449A459A8FE99FE001973E
:10027000F1F700C000004598EFE3FFE13197F1F797
:1002800000C0000008950E94D00080E30E94D700C3
:100290008FE090E40197F1F700C0000080E30E9436
:1002A000D7008FE891E00197F1F700C0000080E3EC
:1002B0000E94D70080E20E94D70088E20E94ED00F1
:1002C00088E00E94ED0081E00E94ED0086E00E943F
:1002D000ED008FE00E94ED009FEF2BED85E0915047
:1002E00020408040E1F700C00000089581E00E94B6
:1002F000ED000895613009F4805C80680E94ED0093
:1003000008958CE00E94ED000895EF92FF920F9304
:100310001F93CF93DF938C017C01C0E0D0E006C037
:10032000F70181917F010E9418012196F801019047
:100330000020E9F73197E01BF10BCE17DF0780F3C0
:10034000DF91CF911F910F91FF90EF9008950E9440
:1003500043010E9481010E947601ECE7F0E0808178
:1003600086608083EAE7F0E0808187608083808117
:1003700080688083E0E6F0E080818861808388E6A1
:1003800080830E940103E9EAF1E080E091E0958337
:1003900084839183808393838283089580E090E0B7
:1003A0000E94BC0A843549F481E090E00E94C40AAE
:1003B00070933D0160933C01089510923D011092AD
:1003C0003C0108951F920F920FB60F9211242F93A4
:1003D0003F934F935F936F937F938F939F93AF93CD
:1003E000BF93EF93FF9364E580E090E00E94CA0A18
:1003F000FF91EF91BF91AF919F918F917F916F91FD
:100400005F914F913F912F910F900FBE0F901F90D2
:100410001895EAE7F0E0808180648083808186FD22
:10042000FDCF8091780090E09093A8018093A70180
:10043000209179008091A7019091A801922B90932F
:10044000A8018093A7016091A7017091A80180E0A5
:1004500090E00E94420420E030E040E85AE30E942D
:10046000A30420E030E040EA50E40E94A30460933B
:100470009201709393018093940190939501609100
:10048000920170919301809194019091950120E0E7
:1004900030E040E850E40E943D0488230CF4A89525
:1004A0000895AC01990F660B770B81E090E00E94F4
:1004B000D80A0895A89584B7877F84BFE0E6F0E066
:1004C00080818861808310820E94A7010E9476014A
:1004D00060E080E00E947A018EE091E00E94850158
:1004E00061E080E00E947A0188E191E00E9485014C
:1004F000109291011092900178940E94CE0161E0D7
:1005000089E00E947A0180913D018F9380913C01A6
:100510008F9382E291E09F938F9386E991E09F937E
:100520008F930E94B50586E991E00E948501209194
:10053000AB013091AC014DE050E061E070E085E24C
:1005400091E00E9481050F900F900F900F900F90F7
:100550000F90C2E2D1E00E94090260919201709175
:100560009301809194019091950106E911E023E0B7
:1005700044E00E94610560E089E00E947A01C801C0
:100580000E9485012FEF80E792E02150804090404B
:10059000E1F700C000008091900190919101C29616
:1005A0009093910180939001883E9340A4F28091B2
:1005B0003C0190913D01019690933D0180933C0157
:1005C0009F938F93DF93CF93C8019F930F930E94C4
:1005D000B50580913C0190913D010E94510261E07E
:1005E00089E00E947A01C8010E9485011092910160
:1005F000109290010F900F900F900F900F900F900E
:10060000AACF87E68093C40088E18093C100089553
:10061000CF93C82F873069F42091AD013091AE019E
:1006200047E050E061E070E083E391E00E948105E3
:100630000CC08A3019F48DE00E940803E0ECF0E071
:10064000908195FFFDCFC093C60080E090E0CF91F0
:1006500008956F927F928F929F92AF92BF92CF92A6
:10066000DF92EF92FF920F931F93CF93DF9320912E
:100670008E0130918F01232B09F0D5C08C010F2EF4
:10068000FEE38F2EF1E09F2EF02DC0ECD0E00F2E78
:10069000F6ECCF2ED12CF02D54010F2EFDE36F2E52
:1006A000F1E07F2EF02D88818823ECF7888184FD8E
:1006B000CDC0888183FDCDC0F60180818D3011F0E1
:1006C0008A3069F48AE0F4018083B8010E9408034B
:1006D0008EE391E090938F0180938E01A4C08930C6
:1006E00039F090EE980F9F3520F0803AB8F001C0B5
:1006F00080E2FDE88F16F1E09F0629F4B80187E05B
:100700000E940803D0CF74019FEFE91AF90AF4019F
:100710008083B8010E9408034701C5CF8231D1F11F
:1007200030F4833009F498C08830E9F0BCCF8731C9
:1007300029F08F37C1F0853179F0B5CFFEE38F1600
:10074000F1E09F0609F008F4AECFF4013197808103
:10075000803209F04DC0A7CF8EE3881681E098065D
:1007600009F070F5A0CF9EE3891691E0990609F093
:1007700008F499CFB80188E00E940803B80180E22C
:100780000E940803B80188E00E940803E1E08E1A85
:10079000910889CFB8018DE00E940803FEE38F160F
:1007A000F1E09F0609F008F47ECF7501B801F7016A
:1007B00081917F010E940803E814F904B9F773CF0F
:1007C000B80188E00E940803B80180E20E94080393
:1007D000B80188E00E940803F1E08F1A91088EE3C7
:1007E000881681E0980661F7F30131964F015BCFDF
:1007F0007401F1E0EF1AF108B80188E00E940803E3
:10080000B80180E20E940803B80188E00E94080352
:100810004701EA14FB0409F446CFF70182917F01F6
:10082000803251F740CFE0918E01F0918F01CF01DE
:10083000019690938F0180938E0180818A3021F4FC
:1008400010928F0110928E0190E008C08EEF9FEF02
:1008500005C08FEF9FEF02C08FEF9FEFDF91CF9129
:100860001F910F91FF90EF90DF90CF90BF90AF90CE
:100870009F908F907F906F9008950E947F0408F45E
:1008800081E00895E89409C097FB3EF49095809527
:10089000709561957F4F8F4F9F4F9923A9F0F92F46
:1008A00096E9BB279395F695879577956795B795C4
:1008B000F111F8CFFAF4BB0F11F460FF1BC06F5FAA
:1008C0007F4F8F4F9F4F16C0882311F096E911C0BC
:1008D000772321F09EE8872F762F05C0662371F0DD
:1008E00096E8862F70E060E02AF09A95660F771FF1
:1008F000881FDAF7880F9695879597F90895990FCD
:100900000008550FAA0BE0E8FEEF16161706E807D9
:10091000F907C0F012161306E407F50798F0621BFA
:10092000730B840B950B39F40A2661F0232B242BCF
:10093000252B21F408950A2609F4A140A6958FEFEE
:10094000811D811D08950E94B6040C9427050E9404
:10095000190538F00E94200520F0952311F00C9421
:1009600010050C94160511240C945B050E943805A3
:1009700070F3959FC1F3950F50E0551F629FF001F2
:10098000729FBB27F00DB11D639FAA27F00DB11D0B
:10099000AA1F649F6627B00DA11D661F829F222794
:1009A000B00DA11D621F739FB00DA11D621F839F1B
:1009B000A00D611D221F749F3327A00D611D231FF1
:1009C000849F600D211D822F762F6A2F11249F573F
:1009D00050409AF0F1F088234AF0EE0FFF1FBB1F42
:1009E000661F771F881F91505040A9F79E3F510501
:1009F00080F00C9410050C945B055F3FE4F3983E87
:100A0000D4F3869577956795B795F795E7959F5FAA
:100A1000C1F7FE2B880F911D9695879597F908953C
:100A200097F99F6780E870E060E008959FEF80ECA1
:100A3000089500240A941616170618060906089544
:100A400000240A9412161306140605060895092EAA
:100A50000394000C11F4882352F0BB0F40F4BF2B19
:100A600011F460FF04C06F5F7F4F8F4F9F4F089559
:100A700057FD9058440F551F59F05F3F71F047954F
:100A8000880F97FB991F61F09F3F79F08795089534
:100A9000121613061406551FF2CF4695F1DF08C053
:100AA000161617061806991FF1CF86957105610570
:100AB00008940895E894BB2766277727CB0197F918
:100AC0000895EF920F931F93CF93DF93E80147FDB3
:100AD00002C034E001C034E1E42F440FFF0BF7FF04
:100AE00003C0F195E195F109E32E022F2E2FAE01FF
:100AF0000E94AA07CE01DF91CF911F910F91EF9035
:100B00000895A0E0B0E0E7E8F5E00C94FB0A5B0193
:100B10004A017901D90113962C9121FF1DC0C0E033
:100B2000D0E0C815D905D9F08C016C01CA0CDB1CCA
:100B3000C8010C151D0571F00F5F1F4FD7011896E6
:100B4000ED91FC911997B701DC018C910995892BE6
:100B500079F305C02196E5CF80E090E001C0CE0199
:100B6000CDB7DEB7ECE00C94170BAEE0B0E0EBEBEA
:100B7000F5E00C94030B0D891E8986E08C831A83A3
:100B800009838FEF9FE79E838D83AE01475E5F4FA2
:100B90006F89788DCE0101960E94D8052F81388506
:100BA000F801E20FF31F10822E96E4E00C941F0B65
:100BB000ACE0B0E0EEEDF5E00C94F50A7C016B01E1
:100BC0008A01FC0117821682838181FFBDC1CE019B
:100BD00001964C01F7019381F60193FD859193FFF6
:100BE00081916F01882309F4ABC1853239F493FDFB
:100BF000859193FF81916F01853229F4B70190E0CF
:100C00000E94260AE7CF512C312C20E02032A0F49C
:100C10008B3269F030F4803259F0833269F420610C
:100C20002CC08D3239F0803339F4216026C0226027
:100C3000246023C0286021C027FD27C030ED380F75
:100C40003A3078F426FF06C0FAE05F9E300D11249A
:100C5000532E13C08AE0389E300D1124332E2062AB
:100C60000CC08E3221F426FD6BC1206406C08C3688
:100C700011F4206802C0883641F4F60193FD859195
:100C800093FF81916F018111C1CF982F9F7D955462
:100C9000933028F40C5F1F4FFFE3F9830DC08336B8
:100CA00031F0833771F0833509F05BC022C0F80161
:100CB000808189830E5F1F4F44244394512C54013B
:100CC00015C03801F2E06F0E711CF801A080B180F0
:100CD00026FF03C0652D70E002C06FEF7FEFC501F6
:100CE0002C870E941B0A2C0183012C852F77222E32
:100CF00017C03801F2E06F0E711CF801A080B180BE
:100D000026FF03C0652D70E002C06FEF7FEFC501C5
:100D10002C870E94100A2C012C852068222E83012A
:100D200023FC1BC0832D90E048165906B0F4B70190
:100D300080E290E00E94260A3A94F4CFF50127FC65
:100D4000859127FE81915F01B70190E00E94260AFC
:100D500031103A94F1E04F1A51084114510471F7DF
:100D6000E5C0843611F0893639F5F80127FF07C050
:100D700060817181828193810C5F1F4F08C0608107
:100D80007181072E000C880B990B0E5F1F4F2F7679
:100D9000722E97FF09C090958095709561957F4F51
:100DA0008F4F9F4F2068722E2AE030E0A4010E94EE
:100DB0005E0AA82EA81844C0853729F42F7EB22ECB
:100DC0002AE030E025C0F22FF97FBF2E8F36C1F028
:100DD00018F4883579F0B4C0803719F0883721F0DD
:100DE000AFC02F2F2061B22EB4FE0DC08B2D8460BA
:100DF000B82E09C024FF0AC09F2F9660B92E06C0E6
:100E000028E030E005C020E130E002C020E132E01F
:100E1000F801B7FE07C060817181828193810C5F08
:100E20001F4F06C06081718180E090E00E5F1F4F10
:100E3000A4010E945E0AA82EA818FB2DFF777F2E22
:100E400076FE0BC0372D3E7FA51450F474FE0AC009
:100E500072FC08C0372D3E7E05C0BA2C372D03C06A
:100E6000BA2C01C0B52C34FF0DC0FE01EA0DF11DF6
:100E70008081803311F4397E09C032FF06C0B394FB
:100E8000B39404C0832F867809F0B39433FD13C064
:100E900030FF06C05A2CB31418F4530C5B18B32C53
:100EA000B31468F4B70180E290E03C870E94260A00
:100EB000B3943C85F5CFB31410F43B1801C0312C2A
:100EC00034FF12C0B70180E390E03C870E94260AFD
:100ED0003C8532FF17C031FD03C088E790E002C0B7
:100EE00088E590E0B7010CC0832F867859F031FF78
:100EF00002C08BE201C080E237FD8DE2B70190E0D5
:100F00000E94260AA51438F4B70180E390E00E94FD
:100F1000260A5A94F7CFAA94F401EA0DF11D8081B4
:100F2000B70190E00E94260AA110F5CF332009F402
:100F300051CEB70180E290E00E94260A3A94F6CFA3
:100F4000F7018681978102C08FEF9FEF2C96E2E137
:100F50000C94110B4F925F926F927F929F92AF927F
:100F6000BF92CF92DF92EF92FF920F931F93CF9396
:100F7000DF93CDB7DEB729970FB6F894DEBF0FBE6B
:100F8000CDBF6A01122FB02E2BE3201720F0FF24D3
:100F9000F394F00E02C0BCE3FB2E0F2D27E0AE0150
:100FA0004F5F5F4F0E943809AC018981982F99707B
:100FB000913031F0E1FC06C0E0FE06C090E205C0D1
:100FC0009DE203C09BE201C090E0EE2DE07183FF43
:100FD0003CC0911102C083E001C084E0811718F485
:100FE000212F281B01C020E0E1110BC0F601822F48
:100FF00030E2882319F031938150FBCFC20ED11C0F
:1010000020E0992329F0D6019C93F60131966F01D7
:10101000C6010396E2FE0AC03EE4D6013C9341E4D9
:1010200011964C93119712963C9306C03EE6F6013A
:10103000308341E641833283FC01322F40E2332387
:1010400009F442C041933150FACF82FF44C091115C
:1010500002C083E001C084E0811718F4212F281B0F
:1010600001C020E0E1110BC0F601822F30E288239D
:1010700019F031938150FBCFC20ED11C20E099238F
:1010800029F0D6019C93F60131966F01C6010396B3
:10109000E2FE0BC039E4D6013C933EE411963C934A
:1010A000119736E412963C9307C039E6F601308377
:1010B0003EE6318336E63283FC01322F40E23323B1
:1010C00019F041933150FBCFFC01E20FF11D10826A
:1010D0008EEF9FEFB7C0F1E0911101C0F0E06F2FEC
:1010E00070E01416150624F49A012F5F3F4F02C0DA
:1010F00021E030E0260F371FBB2029F06B2D70E078
:101100006F5F7F4F02C060E070E0260F371F612FD6
:1011100070E0261737071CF4121B212F01C020E0B6
:101120003E2D387159F4D601322F60E2332319F085
:101130006D933150FBCFC20ED11C20E0FF2331F064
:10114000D6019C93B6016F5F7F4F6B01E1110BC01D
:10115000F601922F30E3992319F031939150FBCF90
:10116000C20ED11C20E09F2D940F3A81782F707110
:10117000A72E84FF03C0313309F49150191624F4CB
:10118000993018F098E001C091E0E42F852F57FFC7
:1011900002C0E0E080E06E2F782FE0E0F0E0AEE209
:1011A0009A2E3A01691A71082A01461A570A0B2D1C
:1011B00010E01195019511096F3F8FEF780729F421
:1011C000D6019C92C60101966C014617570784F020
:1011D000661677066CF47F01E40CF51CA1E0B0E024
:1011E000AC0FBD1FEA0EFB1ED7011196BC9002C0CA
:1011F00090E3B92E615071093196C60101967C01C8
:101200006017710724F0D601BC926C01D5CF64172A
:10121000750741F4363320F4353321F4A11002C0B0
:1012200081E3B82EF601B082F701822F90E2882385
:1012300019F091938150FBCFF701E20FF11D10825D
:1012400080E090E029960FB6F894DEBF0FBECDBFC8
:10125000DF91CF911F910F91FF90EF90DF90CF9092
:10126000BF90AF909F907F906F905F904F90089548
:10127000283008F027E03327DA01990F311D87FD68
:10128000916000966105710539F432602E5F3D93DF
:1012900030E32A95E1F708959F3F30F080387105DB
:1012A000610509F03C5F3C5F3D93913008F0806838
:1012B000911DDF93CF931F930F93FF92EF92192FFE
:1012C000987F9695E92F96959695E90FFF27EE530F
:1012D000FF4F99273327EE24FF24A701E70105904C
:1012E0000894079428F4360FE71EF81E491F511D75
:1012F000660F771F881F991F0694A1F70590079422
:1013000028F4E70EF81E491F561FC11D770F881FCE
:10131000991F661F0694A1F70590079428F4F80E0C
:10132000491F561FC71FD11D880F991F661F771FA2
:101330000694A1F70590079420F4490F561FC71F84
:10134000D81F990F661F771F881F0694A9F78491ED
:101350001095177041F0D695C79557954795F79416
:10136000E7941A95C1F7E8E6F0E0689415901591B6
:1013700035916591959105907FE27395E118F10A99
:10138000430B560BC90BD009C0F7E10CF11E431FEC
:10139000561FC91FD01D7EF4703311F48A95E6CF15
:1013A000E894015030F0080F0AF40027021708F4FF
:1013B000202F2395022F7A3328F079E37D932A9505
:1013C000E9F710C07D932A9589F60694979567955D
:1013D000379517951794E118F10A430B560BC90B73
:1013E000D00998F023957E9173957A3308F070E3D5
:1013F0007C932013B8F77E9170617D9330F08395D4
:1014000071E37D9370E32A95E1F71124EF90FF904B
:101410000F911F91CF91DF91992787FD90950895A6
:10142000FC010590615070400110D8F780959095AF
:101430008E0F9F1F0895FC016150704001900110B4
:10144000D8F7809590958E0F9F1F08950F931F9347
:10145000CF93DF93FB01238121FD03C08FEF9FEF2B
:1014600028C022FF16C0468157812481358142174A
:10147000530744F4A081B1819D012F5F3F4F318319
:1014800020838C93268137812F5F3F4F37832683BC
:1014900010C0EB01092F182F0084F185E02D09956C
:1014A000892BE1F68E819F8101969F838E83812F08
:1014B000902FDF91CF911F910F910895FA01AA27E4
:1014C000283051F1203181F1E8946F936E7F6E5F87
:1014D0007F4F8F4F9F4FAF4FB1E03ED0B4E03CD035
:1014E000670F781F891F9A1FA11D680F791F8A1F18
:1014F000911DA11D6A0F711D811D911DA11D20D07F
:1015000009F468943F912AE0269F11243019305D38
:101510003193DEF6CF010895462F4770405D419329
:10152000B3E00FD0C9F7F6CF462F4F70405D4A3376
:1015300018F0495D31FD4052419302D0A9F7EACF3E
:10154000B4E0A6959795879577956795BA95C9F76D
:1015500000976105710508959B01AC010A2E069460
:101560005795479537952795BA95C9F7620F731F19
:10157000841F951FA01D0895F999FECF92BD81BDCE
:10158000F89A992780B50895A6E1B0E044E050E0CC
:101590000C94E70A262FF999FECF1FBA92BD81BDA0
:1015A00020BD0FB6F894FA9AF99A0FBE01960895E5
:1015B000242F0E94CB0A252F0E94CB0A0C94E00A0C
:1015C0000E94CA0A272F0C94CB0ADC01CB01FC0134
:1015D000F999FECF06C0F2BDE1BDF89A319600B48C
:1015E0000D9241505040B8F708952F923F924F927C
:1015F0005F926F927F928F929F92AF92BF92CF92A3
:10160000DF92EF92FF920F931F93CF93DF93CDB7AB
:10161000DEB7CA1BDB0B0FB6F894DEBF0FBECDBF23
:1016200009942A88398848885F846E847D848C84F4
:101630009B84AA84B984C884DF80EE80FD800C81FD
:101640001B81AA81B981CE0FD11D0FB6F894DEBFE0
:0C1650000FBECDBFED010895F894FFCF50
:10165C000000000300000000080329030000566F7F
:10166C006C746167653A2000436F756E7465723AED
:10167C0020002564005374617274696E672E2E2EDF
:0C168C000A0D002A72696E672A0A00002D
:00000001FF
