:100000000C9434000C9451000C947E010C9451001B
:100010000C9451000C9451000C9451000C9451001C
:100020000C9451000C9451000C9451000C9451000C
:100030000C9451000C9451000C9489010C945100C3
:100040000C9451000C9451000C9451000C945100EC
:100050000C9451000C9451000C9451000C945100DC
:100060000C9451000C94510011241FBECFEFD8E026
:10007000DEBFCDBF11E0A0E0B1E0EAECFFE002C0DE
:1000800005900D92A83BB107D9F722E0A8EBB1E0AB
:1000900001C01D92A83EB207E1F70E946E020C94C7
:1000A000E3070C94000087B18F6087B987B1806344
:1000B00087B9089598B182958F70907F892B88B900
:1000C0004498459A8FE99FE00197F1F700C000003E
:1000D00045988FE99FE00197F1F700C0000008956F
:1000E00098B1282F22952F70907F922B98B9449821
:1000F000459AEFE9FFE03197F1F700C0000045981D
:10010000EFE3FFE13197F1F700C0000098B18F7085
:10011000907F892B88B94498459A8FE99FE0019791
:10012000F1F700C000004598EFE3FFE13197F1F7E8
:1001300000C00000089598B1282F22952F70907F5D
:10014000922B98B9449A459AEFE9FFE03197F1F77D
:1001500000C000004598EFE9FFE03197F1F700C0DB
:10016000000098B18F70907F892B88B9449A459A86
:100170008FE99FE00197F1F700C000004598EFE399
:10018000FFE13197F1F700C0000008950E9453008D
:1001900080E30E945A008FE090E40197F1F700C0DD
:1001A000000080E30E945A008FE891E00197F1F788
:1001B00000C0000080E30E945A0080E20E945A00C2
:1001C00088E20E94700088E00E94700081E00E9436
:1001D000700086E00E9470008FE00E9470009FEF28
:1001E0002BED85E0915020408040E1F700C00000F9
:1001F000089581E00E9470000895613009F4805CE8
:1002000080680E94700008952091140130911501BA
:100210002F5F3F4F3093150120931401220F331F9E
:10022000F901E65EFD4F918380838091C00190913A
:10023000C10101969093C1018093C001089520915E
:10024000140130911501F901EE0FFF1FE65EFD4F1D
:10025000808191814091C0015091C101415051096B
:100260005093C1014093C0012150310930931501D1
:100270002093140108950E94C5020E94C600E2EE78
:10028000F2E084E091E0958384839183808393837B
:1002900082839C0143E150E061E070E086E191E0FF
:1002A0000E9497040E94750465E070E00E940104BA
:1002B0000296909315028093140248EE53E0849FB7
:1002C0009001859F300D949F300D112430931902B9
:1002D00020931802259A229889EF87BDEEE6F0E078
:1002E00080818260808384B5826084BDE9E6F0E02D
:1002F000808188608083E99A789408951F920F9294
:100300000FB60F9211242D980F900FBE0F901F90D3
:1003100018951F920F920FB60F9211248F939F93EF
:100320008091B8019091B901019749F48091BA0187
:100330009091BB0101969093BB018093BA0180918B
:10034000120190911301181619062CF4019790933D
:100350001301809312019F918F910F900FBE0F9008
:100360001F901895EF92FF920F931F93CF93DF93F7
:100370008C017C01C0E0D0E007C0F70181917F01D2
:1003800090E00E949B002196F80101900020E9F77F
:100390003197E01BF10BCE17DF0778F3DF91CF9198
:1003A0001F910F91FF90EF9008950F931F93CF939C
:1003B000DF93009769F00AE010E0B8010E940104A1
:1003C000D62FC72F0E9404018D2F9C2F0097A9F7CD
:1003D0008091C0019091C101892B59F00E941F01A9
:1003E000C0960E949B008091C0019091C101892B11
:1003F000A9F7DF91CF911F910F9108958091BC01D2
:100400009091BD0101969093BD018093BC0115B8F8
:100410008091BA019091BB018093160290931702CC
:100420001092BB011092BA019F938F938AE291E0E0
:100430009F938F93E2EEF2E083818F9382818F937B
:100440000E9485042091BE013091BF018091160267
:1004500090911702820F931F6091BC017091BD01B2
:100460000E9401047093BF016093BE011092B90114
:100470001092B8010E94F900809116029091170223
:100480000E94D50188E491E00E94B20161E070E031
:1004900080E090E00E94FD008CE491E00E94B201B7
:1004A0008091BE019091BF010E94D50115BC0F90B3
:1004B0000F900F900F900F900F90089599236CF06C
:1004C00020E030E0EFE9FFE03197F1F700C00000F5
:1004D0002F5F3F4F82179307ACF708950E943B01AF
:1004E00086E591E00E94B201C2EED2E008EE13E090
:1004F0000F2EF3E0FF2EF02D2A813B814DE050E0DE
:1005000061E070E083E691E00E9497040E94F900A8
:1005100081E791E00E94B20180911402909115024E
:100520009C01209FC001219F900D309F900D1124B0
:100530000E945E020E94F9002A813B8145E050E062
:1005400061E070E08BE791E00E94970481E891E020
:100550000E94B20181E090E09093B9018093B801CC
:10056000F5BC1A9B03C02D9A1A99FDCF0E94FE017B
:100570002A813B8149E250E061E070E086E891E049
:100580000E9497041A99FECFB7CF87E68093C400E4
:1005900088E18093C1000895CF93C82F873069F414
:1005A0002091E6023091E70247E050E061E070E020
:1005B00080EB91E00E9497040CC08A3019F48DE022
:1005C0000E94CC02E0ECF0E0908195FFFDCFC0935B
:1005D000C60080E090E0CF9108956F927F928F9255
:1005E0009F92AF92BF92CF92DF92EF92FF920F93C2
:1005F0001F93CF93DF932091120230911302232B8C
:1006000009F0D5C08C010F2EF2EC8F2EF1E09F2E59
:10061000F02DC0ECD0E00F2EF6ECCF2ED12CF02D2B
:1006200054010F2EF1EC6F2EF1E07F2EF02D88811A
:100630008823ECF7888184FDCDC0888183FDCDC0FF
:10064000F60180818D3011F08A3069F48AE0F4017E
:100650008083B8010E94CC0282EC91E09093130257
:1006600080931202A4C0893039F090EE980F9F3524
:1006700020F0803AB8F001C080E2F1E18F16F2E09C
:100680009F0629F4B80187E00E94CC02D0CF740104
:100690009FEFE91AF90AF4018083B8010E94CC02A5
:1006A0004701C5CF8231D1F130F4833009F498C0CD
:1006B0008830E9F0BCCF873129F08F37C1F0853120
:1006C00079F0B5CFF2EC8F16F1E09F0609F008F44F
:1006D000AECFF40131978081803209F04DC0A7CFB1
:1006E00082EC881681E0980609F070F5A0CF92ECB4
:1006F000891691E0990609F008F499CFB80188E0CD
:100700000E94CC02B80180E20E94CC02B80188E0CD
:100710000E94CC02E1E08E1A910889CFB8018DE0E9
:100720000E94CC02F2EC8F16F1E09F0609F008F46B
:100730007ECF7501B801F70181917F010E94CC0243
:10074000E814F904B9F773CFB80188E00E94CC022D
:10075000B80180E20E94CC02B80188E00E94CC027D
:10076000F1E08F1A910882EC881681E0980661F713
:10077000F30131964F015BCF7401F1E0EF1AF108FC
:10078000B80188E00E94CC02B80180E20E94CC024D
:10079000B80188E00E94CC024701EA14FB0409F486
:1007A00046CFF70182917F01803251F740CFE0912F
:1007B0001202F0911302CF010196909313028093DD
:1007C000120280818A3021F41092130210921202D8
:1007D00090E008C08EEF9FEF05C08FEF9FEF02C043
:1007E0008FEF9FEFDF91CF911F910F91FF90EF90CF
:1007F000DF90CF90BF90AF909F908F907F906F9041
:10080000089597FB072E16F4009407D077FD09D0C2
:100810000E94150407FC05D03EF4909581959F4FEA
:100820000895709561957F4F0895AA1BBB1B51E1F8
:1008300007C0AA1FBB1FA617B70710F0A61BB70B50
:10084000881F991F5A95A9F780959095BC01CD01F5
:1008500008958F929F92AF92BF92CF92DF92EF92C4
:10086000FF92CF93DF93EC01688179818A819B812C
:10087000611571058105910521F464E279ED8BE53F
:1008800097E02DE133EF41E050E00E944907490134
:100890005A019B01AC01A7EAB1E40E9468076B0111
:1008A0007C01ACEEB4EFA50194010E947607DC0157
:1008B000CB018C0D9D1DAE1DBF1DB7FF03C0019761
:1008C000A109B04888839983AA83BB839F77DF916E
:1008D000CF91FF90EF90DF90CF90BF90AF909F901F
:1008E0008F9008950E942904089580E091E00E946D
:1008F00029040895A0E0B0E08093000190930101E5
:10090000A0930201B09303010895A0E0B0E0EBE8EA
:10091000F4E00C948B07AE01475F5F4F6F817885E1
:100920008D819E810E94CB04E2E00C94A707A0E099
:10093000B0E0EDE9F4E00C9481075B014A01790134
:10094000D90113962C9121FF1DC0C0E0D0E0C8153D
:10095000D905D9F08C016C01CA0CDB1CC8010C153F
:100960001D0571F00F5F1F4FD7011896ED91FC9197
:100970001997B701DC018C910995892B79F305C092
:100980002196E5CF80E090E001C0CE01CDB7DEB783
:10099000ECE00C949D07ACE0B0E0E1EDF4E00C94E9
:1009A0007B077C016B018A01FC011782168283811F
:1009B00081FFBDC1CE0101964C01F7019381F60183
:1009C00093FD859193FF81916F01882309F4ABC159
:1009D000853239F493FD859193FF81916F018532C2
:1009E00029F4B70190E00E94B306E7CF512C312CD7
:1009F00020E02032A0F48B3269F030F4803259F0DC
:100A0000833269F420612CC08D3239F0803339F49F
:100A1000216026C02260246023C0286021C027FDF9
:100A200027C030ED380F3A3078F426FF06C0FAE0E0
:100A30005F9E300D1124532E13C08AE0389E300D76
:100A40001124332E20620CC08E3221F426FD6BC19E
:100A5000206406C08C3611F4206802C0883641F448
:100A6000F60193FD859193FF81916F018111C1CFB3
:100A7000982F9F7D9554933028F40C5F1F4FFFE310
:100A8000F9830DC0833631F0833771F0833509F077
:100A90005BC022C0F801808189830E5F1F4F442410
:100AA0004394512C540115C03801F2E06F0E711CB3
:100AB000F801A080B18026FF03C0652D70E002C060
:100AC0006FEF7FEFC5012C870E94A8062C018301E0
:100AD0002C852F77222E17C03801F2E06F0E711C83
:100AE000F801A080B18026FF03C0652D70E002C030
:100AF0006FEF7FEFC5012C870E949D062C012C858E
:100B00002068222E830123FC1BC0832D90E0481611
:100B10005906B0F4B70180E290E00E94B3063A941F
:100B2000F4CFF50127FC859127FE81915F01B70184
:100B300090E00E94B30631103A94F1E04F1A510848
:100B40004114510471F7E5C0843611F0893639F546
:100B5000F80127FF07C060817181828193810C5F5A
:100B60001F4F08C060817181072E000C880B990B04
:100B70000E5F1F4F2F76722E97FF09C090958095BC
:100B8000709561957F4F8F4F9F4F2068722E2AE09E
:100B900030E0A4010E94EB06A82EA81844C08537B7
:100BA00029F42F7EB22E2AE030E025C0F22FF97F03
:100BB000BF2E8F36C1F018F4883579F0B4C0803775
:100BC00019F0883721F0AFC02F2F2061B22EB4FE6C
:100BD0000DC08B2D8460B82E09C024FF0AC09F2F42
:100BE0009660B92E06C028E030E005C020E130E074
:100BF00002C020E132E0F801B7FE07C060817181D8
:100C0000828193810C5F1F4F06C06081718180E0FB
:100C100090E00E5F1F4FA4010E94EB06A82EA818BB
:100C2000FB2DFF777F2E76FE0BC0372D3E7FA51460
:100C300050F474FE0AC072FC08C0372D3E7E05C019
:100C4000BA2C372D03C0BA2C01C0B52C34FF0DC00F
:100C5000FE01EA0DF11D8081803311F4397E09C057
:100C600032FF06C0B394B39404C0832F867809F092
:100C7000B39433FD13C030FF06C05A2CB31418F4DC
:100C8000530C5B18B32CB31468F4B70180E290E006
:100C90003C870E94B306B3943C85F5CFB31410F49F
:100CA0003B1801C0312C34FF12C0B70180E390E043
:100CB0003C870E94B3063C8532FF17C031FD03C05C
:100CC00088E790E002C088E590E0B7010CC0832F70
:100CD000867859F031FF02C08BE201C080E237FD17
:100CE0008DE2B70190E00E94B306A51438F4B70175
:100CF00080E390E00E94B3065A94F7CFAA94F401DF
:100D0000EA0DF11D8081B70190E00E94B306A110A9
:100D1000F5CF332009F451CEB70180E290E00E9474
:100D2000B3063A94F6CFF7018681978102C08FEF20
:100D30009FEF2C96E2E10C949707FC01059061501F
:100D400070400110D8F7809590958E0F9F1F0895E1
:100D5000FC016150704001900110D8F7809590958A
:100D60008E0F9F1F08950F931F93CF93DF93FB0167
:100D7000238121FD03C08FEF9FEF28C022FF16C003
:100D800046815781248135814217530744F4A0815D
:100D9000B1819D012F5F3F4F318320838C9326814A
:100DA00037812F5F3F4F3783268310C0EB01092F18
:100DB000182F0084F185E02D0995892BE1F68E81AD
:100DC0009F8101969F838E83812F902FDF91CF91FA
:100DD0001F910F910895FA01AA27283051F120316F
:100DE00081F1E8946F936E7F6E5F7F4F8F4F9F4FBF
:100DF000AF4FB1E03ED0B4E03CD0670F781F891F01
:100E00009A1FA11D680F791F8A1F911DA11D6A0FCE
:100E1000711D811D911DA11D20D009F468943F9181
:100E20002AE0269F11243019305D3193DEF6CF0180
:100E30000895462F4770405D4193B3E00FD0C9F746
:100E4000F6CF462F4F70405D4A3318F0495D31FDB3
:100E50004052419302D0A9F7EACFB4E0A695979506
:100E6000879577956795BA95C9F7009761057105DC
:100E700008959B01AC010A2E069457954795379526
:100E80002795BA95C9F7620F731F841F951FA01D80
:100E90000895052E97FB1EF400940E94600757FDED
:100EA00007D00E94B20707FC03D04EF40C946007F1
:100EB00050954095309521953F4F4F4F5F4F089586
:100EC00090958095709561957F4F8F4F9F4F0895B6
:100ED0000E94D407A59F900DB49F900DA49F800DF4
:100EE000911D11240895B7FF0C9468070E946807AC
:100EF000821B930B08952F923F924F925F926F92B5
:100F00007F928F929F92AF92BF92CF92DF92EF9299
:100F1000FF920F931F93CF93DF93CDB7DEB7CA1B1A
:100F2000DB0B0FB6F894DEBF0FBECDBF09942A8845
:100F3000398848885F846E847D848C849B84AA84ED
:100F4000B984C884DF80EE80FD800C811B81AA817A
:100F5000B981CE0FD11D0FB6F894DEBF0FBECDBF45
:100F6000ED010895A1E21A2EAA1BBB1BFD010DC0C5
:100F7000AA1FBB1FEE1FFF1FA217B307E407F50749
:100F800020F0A21BB30BE40BF50B661F771F881F25
:100F9000991F1A9469F760957095809590959B01BB
:100FA000AC01BD01CF010895A29FB001B39FC00164
:100FB000A39F700D811D1124911DB29F700D811D85
:0A0FC0001124911D0895F894FFCF4D
:100FCA00010000000000000300000000CC02ED0256
:100FDA0000008813FFFF5541525420696E697469F5
:100FEA00616C697A65642E200A00596F75722072E5
:100FFA0065616374696F6E2074696D652069733AFF
:10100A00202564206D730A00206D73004176657295
:10101A006167653A20005072657373206275747453
:10102A006F6E0052656164792E2E2E2E2E2E3F0A87
:10103A000052656164793F3F3F3F00474F21200AD4
:10104A0000474F21210050726573732062757474D2
:10105A006F6E20746F2074727920616761696E20E7
:10106A00746F2074727920416761696E21200A00C9
:08107A002A72696E672A0A0060
:04000005008001BABC
:00000001FF
