:100000000C9443000C9455000C9455000C9455002E
:100010000C9455000C9455000C9455000C9455000C
:100020000C9455000C9455000C9455000C94A400AD
:100030000C9455000C9455000C94C2000C9455007F
:100040000C9455000C9455000C9455000C945500DC
:100050000C9455000C9455000C9455000C945500CC
:100060000C9455000C94550005A84CCDB2D44EB953
:100070003836A9020C50B9918688083CA6AAAA2A4B
:10008000BE000000803F11241FBECFEFD8E0DEBFCE
:10009000CDBF21E0A0E0B1E001C01D92AF30B207BA
:1000A000E1F70E9425010C9449030C940000229A68
:1000B0001092090110920A0110920B0110920C018A
:1000C000109205011092060110920701109208018A
:1000D00089EF90E0909304018093030110920E0148
:1000E00010920D0180910301909104019093890079
:1000F0008093880080910D0190910E0190938B0068
:1001000080938A00A0E8B0E08C9183608C93E1E852
:10011000F0E08081886180838C9180628C93AFE66F
:10012000B0E08C9182608C9380818160808389EFC4
:1001300087BDEEE6F0E080818260808384B58260D6
:1001400084BD83E085BD08951F920F920FB60F9274
:1001500011248F939F9380910301909104019093B8
:1001600089008093880080910D0190910E019093F9
:100170008B0080938A009F918F910F900FBE0F90FC
:100180001F9018951F920F920FB60F9211242F9364
:100190003F934F935F936F937F938F939F93AF930F
:1001A000BF93EF93FF938091050190910601A09179
:1001B0000701B09108010196A11DB11D80930501B1
:1001C00090930601A0930701B09308016091050187
:1001D0007091060180910701909108010E945A01D7
:1001E0002FE632E143E85AE30E94BE016093090121
:1001F00070930A0180930B0190930C0160910901A7
:1002000070910A0180910B0190910C012CE739E566
:1002100044EC53E40E94BE010E942B020E9429017B
:1002200070930E0160930D01FF91EF91BF91AF911B
:100230009F918F917F916F915F914F913F912F91FE
:100240000F900FBE0F901F9018950E945700789442
:10025000FFCF0E949D0188F09F5798F0B92F9927F2
:10026000B751B0F0E1F0660F771F881F991F1AF0A1
:10027000BA95C9F714C0B13091F00E94B701B1E04E
:1002800008950C94B701672F782F8827B85F39F04D
:10029000B93FCCF3869577956795B395D9F73EF43A
:1002A00090958095709561957F4F8F4F9F4F0895E2
:1002B000E89409C097FB3EF4909580957095619500
:1002C0007F4F8F4F9F4F9923A9F0F92F96E9BB27B6
:1002D0009395F695879577956795B795F111F8CF32
:1002E000FAF4BB0F11F460FF1BC06F5F7F4F8F4F9D
:1002F0009F4F16C0882311F096E911C0772321F093
:100300009EE8872F762F05C0662371F096E8862F2A
:1003100070E060E02AF09A95660F771F881FDAF781
:10032000880F9695879597F9089557FD9058440F33
:10033000551F59F05F3F71F04795880F97FB991F44
:1003400061F09F3F79F08795089512161306140601
:10035000551FF2CF4695F1DF08C01616170618068E
:10036000991FF1CF86957105610508940895E89469
:10037000BB2766277727CB0197F908950E94D10103
:100380000C9475020E943C0238F00E94430220F057
:10039000952311F00C9433020C94390211240C941F
:1003A000B8010E94950170F3959FC1F3950F50E03D
:1003B000551F629FF001729FBB27F00DB11D639F17
:1003C000AA27F00DB11DAA1F649F6627B00DA11DBD
:1003D000661F829F2227B00DA11D621F739FB00D63
:1003E000A11D621F839FA00D611D221F749F3327D3
:1003F000A00D611D231F849F600D211D822F762F6C
:100400006A2F11249F5750409AF0F1F088234AF048
:10041000EE0FFF1FBB1F661F771F881F91505040B4
:10042000A9F79E3F510580F00C9433020C94B8015B
:100430005F3FE4F3983ED4F3869577956795B7953B
:10044000F795E7959F5FC1F7FE2B880F911D969555
:10045000879597F908959F930E944C020F9007FC8F
:10046000EE5F0C94860297F99F6780E870E060E089
:1004700008959FEF80EC089500240A94161617063D
:1004800018060906089500240A9412161306140685
:10049000050608950C9439020E949D01D8F3E89452
:1004A000E0E0BB279F57F0F02AED3FE049EC06C0A3
:1004B000EE0FBB0F661F771F881F28F0B23A620746
:1004C0007307840728F0B25A620B730B840BE39511
:1004D0009A9572F7803830F49A95BB0F661F771F94
:1004E000881FD2F790480C940203092E0394000C45
:1004F00011F4882352F0BB0F40F4BF2B11F460FFBE
:1005000004C06F5F7F4F8F4F9F4F0895EF93E0FFC1
:1005100007C0A2EA2AED3FE049EC5FEB0E94AB0284
:100520000E9475020F90039401FC9058E8E6F0E0F9
:100530000C940E030E943C0238F00E94430220F00B
:1005400039F49F3F19F426F40C9439020EF4E09527
:10055000E7FB0C943302E92F0E94950158F3BA1778
:10056000620773078407950720F079F4A6F50C94C9
:10057000B7010EF4E0950B2EBA2FA02D0B01B90197
:1005800090010C01CA01A0011124FF27591B99F009
:10059000593F50F4503E68F11A16F040A22F232F15
:1005A000342F4427585FF3CF469537952795A79565
:1005B000F0405395C9F77EF41F16BA0B620B730B0C
:1005C000840BBAF09150A1F0FF0FBB1F661F771F7D
:1005D000881FC2F70EC0BA0F621F731F841F48F432
:1005E000879577956795B795F7959E3F08F0B0CFBB
:1005F0009395880F08F09927EE0F979587950895A2
:100600009F3F31F0915020F4879577956795B79586
:10061000880F911D9695879597F908959F938F93CD
:100620007F936F93FF93EF939B01AC010E94BE01F8
:10063000EF91FF910E9422032F913F914F915F9183
:100640000C94BE01DF93CF931F930F93FF92EF9211
:10065000DF927B018C01689406C0DA2EEF010E94C4
:10066000D101FE01E894A5912591359145915591CF
:10067000A6F3EF010E94AB02FE019701A801DA94F4
:1006800069F7DF90EF90FF900F911F91CF91DF916D
:060690000895F894FFCF6D
:00000001FF
