:100000000C9434000C943E000C943E000C943E0082
:100010000C943E000C943E000C943E000C943E0068
:100020000C943E000C943E000C943E000C943E0058
:100030000C943E000C943E000C943E000C943E0048
:100040000C943E000C943E000C943E000C943E0038
:100050000C943E000C943E000C943E000C943E0028
:100060000C943E000C943E0011241FBECFEFD8E04C
:10007000DEBFCDBF0E9440000C9482000C940000B3
:100080008FEF8AB9259A81E091E01F9915C08BB94D
:100090002FE73AE146E0215030404040E1F700C010
:1000A00000001BB82FE73AE146E0215030404040C5
:1000B000E1F700C00000E9CF1A990FC0880F8BB993
:1000C0002FEF39E648E1215030404040E1F700C0D1
:1000D00000008111DACF892FD8CF8BB92FEF39E605
:1000E00048E1215030404040E1F700C000001BB81B
:1000F0002FEF39E648E1215030404040E1F700C0A1
:080100000000C3CFF894FFCF0B
:00000001FF
